{
  "contractName": "HireChain",
  "abi": [
    {
      "inputs": [
        {
          "internalType": "address",
          "name": "_reputationTokenAddress",
          "type": "address"
        }
      ],
      "stateMutability": "nonpayable",
      "type": "constructor"
    },
    {
      "anonymous": false,
      "inputs": [
        {
          "indexed": false,
          "internalType": "uint256",
          "name": "id",
          "type": "uint256"
        },
        {
          "indexed": false,
          "internalType": "address",
          "name": "freelancer",
          "type": "address"
        },
        {
          "indexed": false,
          "internalType": "uint256",
          "name": "proposedFee",
          "type": "uint256"
        }
      ],
      "name": "FreelancerAssigned",
      "type": "event"
    },
    {
      "anonymous": false,
      "inputs": [
        {
          "indexed": false,
          "internalType": "uint256",
          "name": "id",
          "type": "uint256"
        },
        {
          "indexed": false,
          "internalType": "uint256",
          "name": "bidAmount",
          "type": "uint256"
        }
      ],
      "name": "FundsDeposited",
      "type": "event"
    },
    {
      "anonymous": false,
      "inputs": [
        {
          "indexed": false,
          "internalType": "uint256",
          "name": "id",
          "type": "uint256"
        },
        {
          "indexed": false,
          "internalType": "address",
          "name": "freelancer",
          "type": "address"
        },
        {
          "indexed": false,
          "internalType": "uint256",
          "name": "bidAmount",
          "type": "uint256"
        }
      ],
      "name": "FundsReleased",
      "type": "event"
    },
    {
      "anonymous": false,
      "inputs": [
        {
          "indexed": false,
          "internalType": "uint256",
          "name": "id",
          "type": "uint256"
        },
        {
          "indexed": false,
          "internalType": "address",
          "name": "freelancer",
          "type": "address"
        },
        {
          "indexed": false,
          "internalType": "uint256",
          "name": "bidAmount",
          "type": "uint256"
        }
      ],
      "name": "ProjectApplied",
      "type": "event"
    },
    {
      "anonymous": false,
      "inputs": [
        {
          "indexed": false,
          "internalType": "uint256",
          "name": "id",
          "type": "uint256"
        },
        {
          "indexed": false,
          "internalType": "address",
          "name": "employer",
          "type": "address"
        },
        {
          "indexed": false,
          "internalType": "address",
          "name": "freelancer",
          "type": "address"
        },
        {
          "indexed": false,
          "internalType": "uint256",
          "name": "bidAmount",
          "type": "uint256"
        }
      ],
      "name": "ProjectCompleted",
      "type": "event"
    },
    {
      "anonymous": false,
      "inputs": [
        {
          "indexed": false,
          "internalType": "uint256",
          "name": "id",
          "type": "uint256"
        },
        {
          "indexed": false,
          "internalType": "string",
          "name": "name",
          "type": "string"
        },
        {
          "indexed": false,
          "internalType": "string",
          "name": "description",
          "type": "string"
        },
        {
          "indexed": false,
          "internalType": "address",
          "name": "employer",
          "type": "address"
        }
      ],
      "name": "ProjectCreated",
      "type": "event"
    },
    {
      "anonymous": false,
      "inputs": [
        {
          "indexed": false,
          "internalType": "address",
          "name": "freelancer",
          "type": "address"
        },
        {
          "indexed": false,
          "internalType": "uint256",
          "name": "amount",
          "type": "uint256"
        }
      ],
      "name": "ReputationAwarded",
      "type": "event"
    },
    {
      "inputs": [
        {
          "internalType": "uint256",
          "name": "",
          "type": "uint256"
        },
        {
          "internalType": "uint256",
          "name": "",
          "type": "uint256"
        }
      ],
      "name": "feeProposals",
      "outputs": [
        {
          "internalType": "address",
          "name": "freelancer",
          "type": "address"
        },
        {
          "internalType": "uint256",
          "name": "proposedFee",
          "type": "uint256"
        }
      ],
      "stateMutability": "view",
      "type": "function",
      "constant": true
    },
    {
      "inputs": [
        {
          "internalType": "address",
          "name": "",
          "type": "address"
        }
      ],
      "name": "freelancers",
      "outputs": [
        {
          "internalType": "address",
          "name": "freelancerAddress",
          "type": "address"
        },
        {
          "internalType": "uint256",
          "name": "reputation",
          "type": "uint256"
        }
      ],
      "stateMutability": "view",
      "type": "function",
      "constant": true
    },
    {
      "inputs": [],
      "name": "projectCount",
      "outputs": [
        {
          "internalType": "uint256",
          "name": "",
          "type": "uint256"
        }
      ],
      "stateMutability": "view",
      "type": "function",
      "constant": true
    },
    {
      "inputs": [
        {
          "internalType": "uint256",
          "name": "",
          "type": "uint256"
        }
      ],
      "name": "projects",
      "outputs": [
        {
          "internalType": "uint256",
          "name": "id",
          "type": "uint256"
        },
        {
          "internalType": "string",
          "name": "name",
          "type": "string"
        },
        {
          "internalType": "string",
          "name": "description",
          "type": "string"
        },
        {
          "internalType": "address",
          "name": "employer",
          "type": "address"
        },
        {
          "internalType": "address",
          "name": "freelancer",
          "type": "address"
        },
        {
          "internalType": "uint256",
          "name": "bidAmount",
          "type": "uint256"
        },
        {
          "internalType": "bool",
          "name": "completed",
          "type": "bool"
        },
        {
          "internalType": "bool",
          "name": "isPaid",
          "type": "bool"
        }
      ],
      "stateMutability": "view",
      "type": "function",
      "constant": true
    },
    {
      "inputs": [],
      "name": "reputationToken",
      "outputs": [
        {
          "internalType": "contract IReputationToken",
          "name": "",
          "type": "address"
        }
      ],
      "stateMutability": "view",
      "type": "function",
      "constant": true
    },
    {
      "stateMutability": "payable",
      "type": "receive",
      "payable": true
    },
    {
      "inputs": [
        {
          "internalType": "string",
          "name": "_name",
          "type": "string"
        },
        {
          "internalType": "string",
          "name": "_description",
          "type": "string"
        }
      ],
      "name": "createProject",
      "outputs": [],
      "stateMutability": "nonpayable",
      "type": "function"
    },
    {
      "inputs": [
        {
          "internalType": "uint256",
          "name": "_projectId",
          "type": "uint256"
        }
      ],
      "name": "depositFunds",
      "outputs": [],
      "stateMutability": "payable",
      "type": "function",
      "payable": true
    },
    {
      "inputs": [
        {
          "internalType": "uint256",
          "name": "_projectId",
          "type": "uint256"
        },
        {
          "internalType": "uint256",
          "name": "_bidAmount",
          "type": "uint256"
        }
      ],
      "name": "applyForProject",
      "outputs": [],
      "stateMutability": "nonpayable",
      "type": "function"
    },
    {
      "inputs": [
        {
          "internalType": "uint256",
          "name": "_projectId",
          "type": "uint256"
        }
      ],
      "name": "assignFreelancer",
      "outputs": [],
      "stateMutability": "nonpayable",
      "type": "function"
    },
    {
      "inputs": [
        {
          "internalType": "uint256",
          "name": "_projectId",
          "type": "uint256"
        }
      ],
      "name": "completeProject",
      "outputs": [],
      "stateMutability": "nonpayable",
      "type": "function"
    },
    {
      "inputs": [
        {
          "internalType": "uint256",
          "name": "_projectId",
          "type": "uint256"
        }
      ],
      "name": "releaseFunds",
      "outputs": [],
      "stateMutability": "nonpayable",
      "type": "function"
    },
    {
      "inputs": [
        {
          "internalType": "address",
          "name": "_freelancer",
          "type": "address"
        }
      ],
      "name": "getFreelancerReputation",
      "outputs": [
        {
          "internalType": "uint256",
          "name": "",
          "type": "uint256"
        }
      ],
      "stateMutability": "view",
      "type": "function",
      "constant": true
    },
    {
      "inputs": [],
      "name": "getFreelancers",
      "outputs": [
        {
          "internalType": "address[]",
          "name": "",
          "type": "address[]"
        }
      ],
      "stateMutability": "view",
      "type": "function",
      "constant": true
    }
  ],
  "bytecode": "0x608060405234801561001057600080fd5b5060405161191f38038061191f83398101604081905261002f91610054565b600080546001600160a01b0319166001600160a01b0392909216919091179055610082565b600060208284031215610065578081fd5b81516001600160a01b038116811461007b578182fd5b9392505050565b61188e806100916000396000f3fe6080604052600436106100c65760003560e01c80633b76594d1161007f5780636bd06204116100595780636bd06204146102165780636e2ec4dc14610236578063b5bb59c014610256578063ec201e8414610278576100cd565b80633b76594d146101c35780634d68282f146101d657806358101b8f146101f6576100cd565b806304199ee7146100d2578063107046bd1461010857806321bd66931461013c5780632245f1521461016a578063275bbe9b1461018c57806336fbad26146101ae576100cd565b366100cd57005b600080fd5b3480156100de57600080fd5b506100f26100ed3660046111d0565b610298565b6040516100ff91906116d8565b60405180910390f35b34801561011457600080fd5b5061012861012336600461127f565b61031f565b6040516100ff98979695949392919061176a565b34801561014857600080fd5b5061015c6101573660046111d0565b610484565b6040516100ff929190611332565b34801561017657600080fd5b5061018a61018536600461127f565b6104a9565b005b34801561019857600080fd5b506101a1610729565b6040516100ff919061131e565b3480156101ba57600080fd5b506100f2610738565b61018a6101d136600461127f565b61073e565b3480156101e257600080fd5b5061018a6101f136600461127f565b6107d8565b34801561020257600080fd5b5061015c6102113660046112af565b610962565b34801561022257600080fd5b5061018a61023136600461121e565b6109a8565b34801561024257600080fd5b5061018a6102513660046112af565b610af5565b34801561026257600080fd5b5061026b610c3b565b6040516100ff919061134b565b34801561028457600080fd5b5061018a61029336600461127f565b610dc9565b600080546040516370a0823160e01b81526001600160a01b03909116906370a08231906102c990859060040161131e565b60206040518083038186803b1580156102e157600080fd5b505afa1580156102f5573d6000803e3d6000fd5b505050506040513d601f19601f820116820180604052508101906103199190611297565b92915050565b600160208190526000918252604090912080549181018054610340906117e0565b80601f016020809104026020016040519081016040528092919081815260200182805461036c906117e0565b80156103b95780601f1061038e576101008083540402835291602001916103b9565b820191906000526020600020905b81548152906001019060200180831161039c57829003601f168201915b5050505050908060020180546103ce906117e0565b80601f01602080910402602001604051908101604052809291908181526020018280546103fa906117e0565b80156104475780601f1061041c57610100808354040283529160200191610447565b820191906000526020600020905b81548152906001019060200180831161042a57829003601f168201915b5050505060038301546004840154600585015460069095015493946001600160a01b03928316949290911692509060ff8082169161010090041688565b600260205260009081526040902080546001909101546001600160a01b039091169082565b600081815260016020526040902060038101546001600160a01b031633146104ec5760405162461bcd60e51b81526004016104e390611434565b60405180910390fd5b60048101546001600160a01b03166105165760405162461bcd60e51b81526004016104e390611476565b6006810154610100900460ff16156105405760405162461bcd60e51b81526004016104e3906116a8565b60068101805460ff1916600117905560005460048083015460405163a9059cbb60e01b815268056bc75e2d63100000936001600160a01b039081169363a9059cbb9361059193921691869101611332565b602060405180830381600087803b1580156105ab57600080fd5b505af11580156105bf573d6000803e3d6000fd5b505050506040513d601f19601f820116820180604052508101906105e391906111fe565b506000546004808401546040516370a0823160e01b81526001600160a01b03938416936370a082319361061a93909116910161131e565b60206040518083038186803b15801561063257600080fd5b505afa158015610646573d6000803e3d6000fd5b505050506040513d601f19601f8201168201806040525081019061066a9190611297565b6004830180546001600160a01b03908116600090815260026020526040908190206001019390935560038501549154600586015493517fa4b11fcfec9227f7eeba07f17d16eb5091f2ea60c117dd7a3a5e6b48242f1cbe946106d39489949081169316916116e1565b60405180910390a160048201546040517f99a3d10b89b07674fcd46bd1678cb120c3c0e2bdd33ab6c1ed9907208907a3219161071c916001600160a01b03909116908490611332565b60405180910390a1505050565b6000546001600160a01b031681565b60045481565b600081815260016020526040902060038101546001600160a01b031633146107785760405162461bcd60e51b81526004016104e390611557565b8060050154341461079b5760405162461bcd60e51b81526004016104e3906115f5565b7f26679fa1f3868c950e9362f1106cf73f3318de0280e0411a3c68e4b463eadd4f82346040516107cc9291906117d2565b60405180910390a15050565b600081815260016020526040902060038101546001600160a01b031633146108125760405162461bcd60e51b81526004016104e390611671565b600681015460ff166108365760405162461bcd60e51b81526004016104e390611520565b6006810154610100900460ff16156108605760405162461bcd60e51b81526004016104e3906116a8565b80600501544710156108845760405162461bcd60e51b81526004016104e3906115be565b600481015460058201546040516000926001600160a01b031691906108a89061131b565b60006040518083038185875af1925050503d80600081146108e5576040519150601f19603f3d011682016040523d82523d6000602084013e6108ea565b606091505b505090508061090b5760405162461bcd60e51b81526004016104e3906113cf565b60068201805461ff001916610100179055600482015460058301546040517f6e3c6096795c8298a218b2cfb8bde42726ff7c9a3d27b4d3ba41ab7f74feb5fb9261071c9287926001600160a01b0390921691611706565b6003602052816000526040600020818154811061097e57600080fd5b6000918252602090912060029091020180546001909101546001600160a01b039091169250905082565b600480549060006109b88361181b565b90915550506040805161010081018252600454808252602080830186815283850186905233606085015260006080850181905260a0850181905260c0850181905260e08501819052928352600180835294909220835181559151805193949293610a299385019291909101906110b6565b5060408201518051610a459160028401916020909101906110b6565b5060608201516003820180546001600160a01b03199081166001600160a01b03938416179091556080840151600480850180549093169190931617905560a0830151600583015560c08301516006909201805460e09094015160ff199094169215159290921761ff00191661010093151593909302929092179055546040517fedfd921b9d3f1e2d61625b6c7cbf436b8651ea7c5c83e688277f1600fdcb1f26916107cc91859085903390611725565b600082815260016020526040902060038101546001600160a01b0316610b2d5760405162461bcd60e51b81526004016104e39061158e565b60048101546001600160a01b031615610b585760405162461bcd60e51b81526004016104e3906114eb565b600083815260036020908152604080832081518083018352338082528185018881528354600180820186559488528688209351600291820290940180546001600160a01b0319166001600160a01b0395861617815591519190940155855292529091205416610c085760408051808201825233808252600060208084018281529282526002905292909220905181546001600160a01b0319166001600160a01b0390911617815590516001909101555b7f050735b04e4d0bf45ad597f4500f17ba72e51b05b0fc1bad63807ab65ca812ab83338460405161071c93929190611706565b6060600060045467ffffffffffffffff811115610c6857634e487b7160e01b600052604160045260246000fd5b604051908082528060200260200182016040528015610c91578160200160208202803683370190505b509050600060015b6004548111610dc157600081815260036020908152604080832080548251818502810185019093528083529192909190849084015b82821015610d16576000848152602090819020604080518082019091526002850290910180546001600160a01b03168252600190810154828401529083529092019101610cce565b50505050905060005b8151811015610dac57818181518110610d4857634e487b7160e01b600052603260045260246000fd5b602002602001015160000151858581518110610d7457634e487b7160e01b600052603260045260246000fd5b6001600160a01b039092166020928302919091019091015283610d968161181b565b9450508080610da49061181b565b915050610d1f565b50508080610db99061181b565b915050610c99565b509091505090565b600081815260016020526040902060038101546001600160a01b03163314610e035760405162461bcd60e51b81526004016104e3906114a6565b60048101546001600160a01b031615610e2e5760405162461bcd60e51b81526004016104e39061163a565b600082815260036020908152604080832080548251818502810185019093528083529192909190849084015b82821015610ea2576000848152602090819020604080518082019091526002850290910180546001600160a01b03168252600190810154828401529083529092019101610e5a565b5050505090506000815111610ec95760405162461bcd60e51b81526004016104e390611398565b600060001981805b8451811015611027576000858281518110610efc57634e487b7160e01b600052603260045260246000fd5b602090810291909101015151600080546040516370a0823160e01b815292935090916001600160a01b03909116906370a0823190610f3e90859060040161131e565b60206040518083038186803b158015610f5657600080fd5b505afa158015610f6a573d6000803e3d6000fd5b505050506040513d601f19601f82011682018060405250810190610f8e9190611297565b90506000878481518110610fb257634e487b7160e01b600052603260045260246000fd5b602002602001015160200151905084821180610fd757508482148015610fd757508581105b1561101157819450878481518110610fff57634e487b7160e01b600052603260045260246000fd5b60200260200101516020015195508296505b505050808061101f9061181b565b915050610ed1565b506001600160a01b03831661104e5760405162461bcd60e51b81526004016104e3906113fd565b6004850180546001600160a01b0319166001600160a01b038516179055600585018290556040517fdd33626ddad41a9d8289ee8abbbd0b8f5a72a0e1e8661ef3ab9774ed4cf6a276906110a690889086908690611706565b60405180910390a1505050505050565b8280546110c2906117e0565b90600052602060002090601f0160209004810192826110e4576000855561112a565b82601f106110fd57805160ff191683800117855561112a565b8280016001018555821561112a579182015b8281111561112a57825182559160200191906001019061110f565b5061113692915061113a565b5090565b5b80821115611136576000815560010161113b565b600082601f83011261115f578081fd5b813567ffffffffffffffff8082111561117a5761117a611842565b604051601f8301601f19168101602001828111828210171561119e5761119e611842565b6040528281528483016020018610156111b5578384fd5b82602086016020830137918201602001929092529392505050565b6000602082840312156111e1578081fd5b81356001600160a01b03811681146111f7578182fd5b9392505050565b60006020828403121561120f578081fd5b815180151581146111f7578182fd5b60008060408385031215611230578081fd5b823567ffffffffffffffff80821115611247578283fd5b6112538683870161114f565b93506020850135915080821115611268578283fd5b506112758582860161114f565b9150509250929050565b600060208284031215611290578081fd5b5035919050565b6000602082840312156112a8578081fd5b5051919050565b600080604083850312156112c1578182fd5b50508035926020909101359150565b60008151808452815b818110156112f5576020818501810151868301820152016112d9565b818111156113065782602083870101525b50601f01601f19169290920160200192915050565b90565b6001600160a01b0391909116815260200190565b6001600160a01b03929092168252602082015260400190565b6020808252825182820181905260009190848201906040850190845b8181101561138c5783516001600160a01b031683529284019291840191600101611367565b50909695505050505050565b6020808252601b908201527f4e6f20667265656c616e636572732068617665206170706c6965640000000000604082015260600190565b6020808252601490820152732330b4b632b2103a379039b2b7321022ba3432b960611b604082015260600190565b6020808252601c908201527f4e6f207375697461626c6520667265656c616e63657220666f756e6400000000604082015260600190565b60208082526022908201527f4f6e6c7920656d706c6f7965722063616e206d61726b20617320636f6d706c65604082015261746560f01b606082015260800190565b602080825260169082015275139bc8199c99595b185b98d95c88185cdcda59db995960521b604082015260600190565b60208082526025908201527f4f6e6c7920656d706c6f7965722063616e2061737369676e206120667265656c60408201526430b731b2b960d91b606082015260800190565b6020808252818101527f50726f6a65637420616c726561647920686173206120667265656c616e636572604082015260600190565b60208082526019908201527f50726f6a656374206d75737420626520636f6d706c6574656400000000000000604082015260600190565b6020808252601f908201527f4f6e6c7920656d706c6f7965722063616e206465706f7369742066756e647300604082015260600190565b602080825260169082015275141c9bda9958dd08191bd95cc81b9bdd08195e1a5cdd60521b604082015260600190565b6020808252601d908201527f496e73756666696369656e7420636f6e74726163742062616c616e6365000000604082015260600190565b60208082526025908201527f4465706f736974206d757374206d61746368207468652070726f6a65637420616040820152641b5bdd5b9d60da1b606082015260800190565b6020808252601b908201527f467265656c616e63657220616c72656164792061737369676e65640000000000604082015260600190565b6020808252601f908201527f4f6e6c7920656d706c6f7965722063616e2072656c656173652066756e647300604082015260600190565b602080825260169082015275119d5b991cc8185b1c9958591e481c995b19585cd95960521b604082015260600190565b90815260200190565b9384526001600160a01b03928316602085015291166040830152606082015260800190565b9283526001600160a01b03919091166020830152604082015260600190565b60008582526080602083015261173e60808301866112d0565b828103604084015261175081866112d0565b91505060018060a01b038316606083015295945050505050565b60006101008a83528060208401526117848184018b6112d0565b90508281036040840152611798818a6112d0565b6001600160a01b0398891660608501529690971660808301525060a081019390935290151560c0830152151560e090910152949350505050565b918252602082015260400190565b6002810460018216806117f457607f821691505b6020821081141561181557634e487b7160e01b600052602260045260246000fd5b50919050565b600060001982141561183b57634e487b7160e01b81526011600452602481fd5b5060010190565b634e487b7160e01b600052604160045260246000fdfea26469706673582212207ee2e0c11c91c0b4a440398d1ccaf3f7c1d582b0f8ed7dac1f4924274a2fbaeb64736f6c63430008000033",
  "immutableReferences": {},
  "source": "// SPDX-License-Identifier: UNLICENSED\r\npragma solidity ^0.8.0;\r\n\r\ninterface IReputationToken {\r\n    function transfer(address _to, uint256 _value) external returns (bool success);\r\n    function balanceOf(address _owner) external view returns (uint256 balance);\r\n}\r\n\r\ncontract HireChain {\r\n    enum Role { Employer, Freelancer }\r\n\r\n    struct Project {\r\n        uint256 id;\r\n        string name;\r\n        string description;\r\n        address employer;\r\n        address freelancer;\r\n        uint256 bidAmount;\r\n        bool completed;\r\n        bool isPaid;\r\n    }\r\n\r\n    struct Freelancer {\r\n        address freelancerAddress;\r\n        uint256 reputation; // Mirrors token balance for simplicity\r\n    }\r\n\r\n    struct FeeProposal {\r\n        address freelancer;\r\n        uint256 proposedFee;\r\n    }\r\n\r\n    IReputationToken public reputationToken;\r\n    mapping(uint256 => Project) public projects;\r\n    mapping(address => Freelancer) public freelancers;\r\n    mapping(uint256 => FeeProposal[]) public feeProposals;\r\n    uint256 public projectCount;\r\n\r\n    event ProjectCreated(uint256 id, string name, string description, address employer);\r\n    event ProjectCompleted(uint256 id, address employer, address freelancer, uint256 bidAmount);\r\n    event ProjectApplied(uint256 id, address freelancer, uint256 bidAmount);\r\n    event FreelancerAssigned(uint256 id, address freelancer, uint256 proposedFee);\r\n    event FundsDeposited(uint id, uint256 bidAmount);\r\n    event FundsReleased(uint id, address freelancer, uint256 bidAmount);\r\n    event ReputationAwarded(address freelancer, uint256 amount);\r\n\r\n    constructor(address _reputationTokenAddress) {\r\n        reputationToken = IReputationToken(_reputationTokenAddress);\r\n    }\r\n\r\n    function createProject(string memory _name, string memory _description) public {\r\n        projectCount++;\r\n        projects[projectCount] = Project(projectCount, _name, _description, msg.sender, address(0), 0, false, false);\r\n        emit ProjectCreated(projectCount, _name, _description, msg.sender);\r\n    }\r\n\r\n    function depositFunds(uint _projectId) public payable {\r\n        Project storage project = projects[_projectId];\r\n        require(msg.sender == project.employer, \"Only employer can deposit funds\");\r\n        require(msg.value == project.bidAmount, \"Deposit must match the project amount\");\r\n        emit FundsDeposited(_projectId, msg.value);\r\n    }\r\n\r\n    function applyForProject(uint256 _projectId, uint256 _bidAmount) public {\r\n        Project storage project = projects[_projectId];\r\n        require(project.employer != address(0), \"Project does not exist\");\r\n        require(project.freelancer == address(0), \"Project already has a freelancer\");\r\n        feeProposals[_projectId].push(FeeProposal(msg.sender, _bidAmount));\r\n        if (freelancers[msg.sender].freelancerAddress == address(0)) {\r\n            freelancers[msg.sender] = Freelancer(msg.sender, 0);\r\n        }\r\n        emit ProjectApplied(_projectId, msg.sender, _bidAmount);\r\n    }\r\n\r\n    function assignFreelancer(uint256 _projectId) public {\r\n        Project storage project = projects[_projectId];\r\n        require(msg.sender == project.employer, \"Only employer can assign a freelancer\");\r\n        require(project.freelancer == address(0), \"Freelancer already assigned\");\r\n\r\n        FeeProposal[] memory proposals = feeProposals[_projectId];\r\n        require(proposals.length > 0, \"No freelancers have applied\");\r\n\r\n        address bestFreelancer = address(0);\r\n        uint256 minFee = type(uint256).max;\r\n        uint256 maxReputation = 0;\r\n\r\n        for (uint256 i = 0; i < proposals.length; i++) {\r\n            address freelancer = proposals[i].freelancer;\r\n            uint256 freelancerRep = reputationToken.balanceOf(freelancer);\r\n            uint256 proposedFee = proposals[i].proposedFee;\r\n\r\n            if (freelancerRep > maxReputation || (freelancerRep == maxReputation && proposedFee < minFee)) {\r\n                maxReputation = freelancerRep;\r\n                minFee = proposals[i].proposedFee;\r\n                bestFreelancer = freelancer;\r\n            }\r\n        }\r\n\r\n        require(bestFreelancer != address(0), \"No suitable freelancer found\");\r\n        project.freelancer = bestFreelancer;\r\n        project.bidAmount = minFee;\r\n        emit FreelancerAssigned(_projectId, bestFreelancer, minFee);\r\n    }\r\n\r\n    function completeProject(uint256 _projectId) public {\r\n        Project storage project = projects[_projectId];\r\n        require(msg.sender == project.employer, \"Only employer can mark as complete\");\r\n        require(project.freelancer != address(0), \"No freelancer assigned\");\r\n        require(!project.isPaid, \"Funds already released\");\r\n\r\n        project.completed = true;\r\n        uint256 reward = 100 * 10**18; // 100 REP tokens\r\n        reputationToken.transfer(project.freelancer, reward);\r\n        freelancers[project.freelancer].reputation = reputationToken.balanceOf(project.freelancer);\r\n        emit ProjectCompleted(_projectId, project.employer, project.freelancer, project.bidAmount);\r\n        emit ReputationAwarded(project.freelancer, reward);\r\n    }\r\n\r\n    function releaseFunds(uint256 _projectId) public {\r\n        Project storage project = projects[_projectId];\r\n        require(msg.sender == project.employer, \"Only employer can release funds\");\r\n        require(project.completed, \"Project must be completed\");\r\n        require(!project.isPaid, \"Funds already released\");\r\n        require(address(this).balance >= project.bidAmount, \"Insufficient contract balance\");\r\n\r\n        (bool sent, ) = project.freelancer.call{value: project.bidAmount}(\"\");\r\n        require(sent, \"Failed to send Ether\");\r\n        project.isPaid = true;\r\n        emit FundsReleased(_projectId, project.freelancer, project.bidAmount);\r\n    }\r\n\r\n    function getFreelancerReputation(address _freelancer) public view returns (uint256) {\r\n        return reputationToken.balanceOf(_freelancer);\r\n    }\r\n\r\n    function getFreelancers() public view returns (address[] memory) {\r\n        address[] memory allFreelancers = new address[](projectCount);\r\n        uint256 index = 0;\r\n        for (uint256 i = 1; i <= projectCount; i++) {\r\n            FeeProposal[] memory proposals = feeProposals[i];\r\n            for (uint256 j = 0; j < proposals.length; j++) {\r\n                allFreelancers[index] = proposals[j].freelancer;\r\n                index++;\r\n            }\r\n        }\r\n        return allFreelancers;\r\n    }\r\n    \r\n    receive() external payable {}\r\n}",
  "sourcePath": "C:\\Users\\NAVJOTH RAI\\HC\\contracts\\HireChain.sol",
  "compiler": {
    "name": "solc",
    "version": "0.8.0+commit.c7dfd78e.Emscripten.clang"
  },
  "schemaVersion": "3.4.16",
  "updatedAt": "2025-03-19T02:47:55.709Z",
  "networkType": "ethereum",
  "devdoc": {
    "kind": "dev",
    "methods": {},
    "version": 1
  },
  "userdoc": {
    "kind": "user",
    "methods": {},
    "version": 1
  }
}