{
  "contractName": "HireChain",
  "abi": [
    {
      "inputs": [
        {
          "internalType": "address",
          "name": "_reputationTokenAddress",
          "type": "address"
        }
      ],
      "stateMutability": "nonpayable",
      "type": "constructor"
    },
    {
      "anonymous": false,
      "inputs": [
        {
          "indexed": false,
          "internalType": "uint256",
          "name": "id",
          "type": "uint256"
        },
        {
          "indexed": false,
          "internalType": "address",
          "name": "freelancer",
          "type": "address"
        },
        {
          "indexed": false,
          "internalType": "uint256",
          "name": "proposedFee",
          "type": "uint256"
        }
      ],
      "name": "FreelancerAssigned",
      "type": "event"
    },
    {
      "anonymous": false,
      "inputs": [
        {
          "indexed": false,
          "internalType": "uint256",
          "name": "projectId",
          "type": "uint256"
        },
        {
          "indexed": false,
          "internalType": "address",
          "name": "freelancer",
          "type": "address"
        },
        {
          "indexed": false,
          "internalType": "uint256",
          "name": "amount",
          "type": "uint256"
        }
      ],
      "name": "FundsAutoReleased",
      "type": "event"
    },
    {
      "anonymous": false,
      "inputs": [
        {
          "indexed": false,
          "internalType": "uint256",
          "name": "id",
          "type": "uint256"
        },
        {
          "indexed": false,
          "internalType": "uint256",
          "name": "bidAmount",
          "type": "uint256"
        }
      ],
      "name": "FundsDeposited",
      "type": "event"
    },
    {
      "anonymous": false,
      "inputs": [
        {
          "indexed": false,
          "internalType": "uint256",
          "name": "id",
          "type": "uint256"
        },
        {
          "indexed": false,
          "internalType": "address",
          "name": "freelancer",
          "type": "address"
        },
        {
          "indexed": false,
          "internalType": "uint256",
          "name": "bidAmount",
          "type": "uint256"
        },
        {
          "indexed": false,
          "internalType": "bool",
          "name": "success",
          "type": "bool"
        }
      ],
      "name": "FundsReleased",
      "type": "event"
    },
    {
      "anonymous": false,
      "inputs": [
        {
          "indexed": false,
          "internalType": "uint256",
          "name": "projectId",
          "type": "uint256"
        },
        {
          "indexed": false,
          "internalType": "uint256",
          "name": "employerAmount",
          "type": "uint256"
        },
        {
          "indexed": false,
          "internalType": "uint256",
          "name": "freelancerAmount",
          "type": "uint256"
        }
      ],
      "name": "FundsSplit",
      "type": "event"
    },
    {
      "anonymous": false,
      "inputs": [
        {
          "indexed": false,
          "internalType": "uint256",
          "name": "id",
          "type": "uint256"
        },
        {
          "indexed": false,
          "internalType": "address",
          "name": "freelancer",
          "type": "address"
        },
        {
          "indexed": false,
          "internalType": "uint256",
          "name": "bidAmount",
          "type": "uint256"
        }
      ],
      "name": "ProjectApplied",
      "type": "event"
    },
    {
      "anonymous": false,
      "inputs": [
        {
          "indexed": false,
          "internalType": "uint256",
          "name": "projectId",
          "type": "uint256"
        },
        {
          "indexed": false,
          "internalType": "address",
          "name": "employer",
          "type": "address"
        }
      ],
      "name": "ProjectApproved",
      "type": "event"
    },
    {
      "anonymous": false,
      "inputs": [
        {
          "indexed": false,
          "internalType": "uint256",
          "name": "id",
          "type": "uint256"
        },
        {
          "indexed": false,
          "internalType": "address",
          "name": "employer",
          "type": "address"
        },
        {
          "indexed": false,
          "internalType": "address",
          "name": "freelancer",
          "type": "address"
        },
        {
          "indexed": false,
          "internalType": "uint256",
          "name": "bidAmount",
          "type": "uint256"
        }
      ],
      "name": "ProjectCompleted",
      "type": "event"
    },
    {
      "anonymous": false,
      "inputs": [
        {
          "indexed": false,
          "internalType": "uint256",
          "name": "id",
          "type": "uint256"
        },
        {
          "indexed": false,
          "internalType": "string",
          "name": "name",
          "type": "string"
        },
        {
          "indexed": false,
          "internalType": "string",
          "name": "description",
          "type": "string"
        },
        {
          "indexed": false,
          "internalType": "address",
          "name": "employer",
          "type": "address"
        }
      ],
      "name": "ProjectCreated",
      "type": "event"
    },
    {
      "anonymous": false,
      "inputs": [
        {
          "indexed": false,
          "internalType": "uint256",
          "name": "projectId",
          "type": "uint256"
        },
        {
          "indexed": false,
          "internalType": "address",
          "name": "employer",
          "type": "address"
        },
        {
          "indexed": false,
          "internalType": "uint256",
          "name": "timestamp",
          "type": "uint256"
        }
      ],
      "name": "ProjectDisputed",
      "type": "event"
    },
    {
      "anonymous": false,
      "inputs": [
        {
          "indexed": false,
          "internalType": "uint256",
          "name": "projectId",
          "type": "uint256"
        },
        {
          "indexed": false,
          "internalType": "address",
          "name": "freelancer",
          "type": "address"
        },
        {
          "indexed": false,
          "internalType": "uint256",
          "name": "timestamp",
          "type": "uint256"
        }
      ],
      "name": "ProjectMarkedReadyForReview",
      "type": "event"
    },
    {
      "anonymous": false,
      "inputs": [
        {
          "indexed": false,
          "internalType": "uint256",
          "name": "projectId",
          "type": "uint256"
        },
        {
          "indexed": false,
          "internalType": "address",
          "name": "freelancer",
          "type": "address"
        },
        {
          "indexed": false,
          "internalType": "uint256",
          "name": "timestamp",
          "type": "uint256"
        }
      ],
      "name": "ProjectResubmitted",
      "type": "event"
    },
    {
      "anonymous": false,
      "inputs": [
        {
          "indexed": false,
          "internalType": "address",
          "name": "freelancer",
          "type": "address"
        },
        {
          "indexed": false,
          "internalType": "uint256",
          "name": "amount",
          "type": "uint256"
        }
      ],
      "name": "ReputationAwarded",
      "type": "event"
    },
    {
      "anonymous": false,
      "inputs": [
        {
          "indexed": false,
          "internalType": "uint256",
          "name": "id",
          "type": "uint256"
        },
        {
          "indexed": false,
          "internalType": "string",
          "name": "reason",
          "type": "string"
        }
      ],
      "name": "TransferFailed",
      "type": "event"
    },
    {
      "inputs": [],
      "name": "EMPLOYER_REDISPUTE_DEADLINE",
      "outputs": [
        {
          "internalType": "uint256",
          "name": "",
          "type": "uint256"
        }
      ],
      "stateMutability": "view",
      "type": "function",
      "constant": true
    },
    {
      "inputs": [],
      "name": "EMPLOYER_REVIEW_DEADLINE",
      "outputs": [
        {
          "internalType": "uint256",
          "name": "",
          "type": "uint256"
        }
      ],
      "stateMutability": "view",
      "type": "function",
      "constant": true
    },
    {
      "inputs": [],
      "name": "FREELANCER_RESUBMIT_DEADLINE",
      "outputs": [
        {
          "internalType": "uint256",
          "name": "",
          "type": "uint256"
        }
      ],
      "stateMutability": "view",
      "type": "function",
      "constant": true
    },
    {
      "inputs": [
        {
          "internalType": "uint256",
          "name": "",
          "type": "uint256"
        },
        {
          "internalType": "uint256",
          "name": "",
          "type": "uint256"
        }
      ],
      "name": "feeProposals",
      "outputs": [
        {
          "internalType": "address",
          "name": "freelancer",
          "type": "address"
        },
        {
          "internalType": "uint256",
          "name": "proposedFee",
          "type": "uint256"
        }
      ],
      "stateMutability": "view",
      "type": "function",
      "constant": true
    },
    {
      "inputs": [
        {
          "internalType": "address",
          "name": "",
          "type": "address"
        }
      ],
      "name": "freelancers",
      "outputs": [
        {
          "internalType": "address",
          "name": "freelancerAddress",
          "type": "address"
        },
        {
          "internalType": "uint256",
          "name": "reputation",
          "type": "uint256"
        }
      ],
      "stateMutability": "view",
      "type": "function",
      "constant": true
    },
    {
      "inputs": [],
      "name": "projectCount",
      "outputs": [
        {
          "internalType": "uint256",
          "name": "",
          "type": "uint256"
        }
      ],
      "stateMutability": "view",
      "type": "function",
      "constant": true
    },
    {
      "inputs": [
        {
          "internalType": "uint256",
          "name": "",
          "type": "uint256"
        }
      ],
      "name": "projects",
      "outputs": [
        {
          "internalType": "uint256",
          "name": "id",
          "type": "uint256"
        },
        {
          "internalType": "string",
          "name": "name",
          "type": "string"
        },
        {
          "internalType": "string",
          "name": "description",
          "type": "string"
        },
        {
          "internalType": "address",
          "name": "employer",
          "type": "address"
        },
        {
          "internalType": "address",
          "name": "freelancer",
          "type": "address"
        },
        {
          "internalType": "uint256",
          "name": "bidAmount",
          "type": "uint256"
        },
        {
          "internalType": "bool",
          "name": "completed",
          "type": "bool"
        },
        {
          "internalType": "bool",
          "name": "isPaid",
          "type": "bool"
        },
        {
          "internalType": "string",
          "name": "employerFileCID",
          "type": "string"
        },
        {
          "internalType": "string",
          "name": "freelancerFileCID",
          "type": "string"
        }
      ],
      "stateMutability": "view",
      "type": "function",
      "constant": true
    },
    {
      "inputs": [],
      "name": "reputationToken",
      "outputs": [
        {
          "internalType": "contract IReputationToken",
          "name": "",
          "type": "address"
        }
      ],
      "stateMutability": "view",
      "type": "function",
      "constant": true
    },
    {
      "inputs": [
        {
          "internalType": "uint256",
          "name": "",
          "type": "uint256"
        }
      ],
      "name": "reviewStatuses",
      "outputs": [
        {
          "internalType": "enum HireChain.ProjectState",
          "name": "state",
          "type": "uint8"
        },
        {
          "internalType": "uint256",
          "name": "readyForReviewTimestamp",
          "type": "uint256"
        },
        {
          "internalType": "uint256",
          "name": "disputeTimestamp",
          "type": "uint256"
        },
        {
          "internalType": "bool",
          "name": "employerApproved",
          "type": "bool"
        }
      ],
      "stateMutability": "view",
      "type": "function",
      "constant": true
    },
    {
      "stateMutability": "payable",
      "type": "receive",
      "payable": true
    },
    {
      "inputs": [
        {
          "internalType": "string",
          "name": "_name",
          "type": "string"
        },
        {
          "internalType": "string",
          "name": "_description",
          "type": "string"
        },
        {
          "internalType": "string",
          "name": "_employerFileCID",
          "type": "string"
        }
      ],
      "name": "createProject",
      "outputs": [],
      "stateMutability": "nonpayable",
      "type": "function"
    },
    {
      "inputs": [
        {
          "internalType": "uint256",
          "name": "_projectId",
          "type": "uint256"
        }
      ],
      "name": "depositFunds",
      "outputs": [],
      "stateMutability": "payable",
      "type": "function",
      "payable": true
    },
    {
      "inputs": [
        {
          "internalType": "uint256",
          "name": "_projectId",
          "type": "uint256"
        },
        {
          "internalType": "uint256",
          "name": "_bidAmount",
          "type": "uint256"
        }
      ],
      "name": "applyForProject",
      "outputs": [],
      "stateMutability": "nonpayable",
      "type": "function"
    },
    {
      "inputs": [
        {
          "internalType": "uint256",
          "name": "_projectId",
          "type": "uint256"
        }
      ],
      "name": "assignFreelancer",
      "outputs": [],
      "stateMutability": "nonpayable",
      "type": "function"
    },
    {
      "inputs": [
        {
          "internalType": "uint256",
          "name": "_projectId",
          "type": "uint256"
        }
      ],
      "name": "completeProject",
      "outputs": [],
      "stateMutability": "nonpayable",
      "type": "function"
    },
    {
      "inputs": [
        {
          "internalType": "uint256",
          "name": "_projectId",
          "type": "uint256"
        }
      ],
      "name": "releaseFunds",
      "outputs": [],
      "stateMutability": "nonpayable",
      "type": "function"
    },
    {
      "inputs": [
        {
          "internalType": "address",
          "name": "_freelancer",
          "type": "address"
        }
      ],
      "name": "getFreelancerReputation",
      "outputs": [
        {
          "internalType": "uint256",
          "name": "",
          "type": "uint256"
        }
      ],
      "stateMutability": "view",
      "type": "function",
      "constant": true
    },
    {
      "inputs": [],
      "name": "getFreelancers",
      "outputs": [
        {
          "internalType": "address[]",
          "name": "",
          "type": "address[]"
        }
      ],
      "stateMutability": "view",
      "type": "function",
      "constant": true
    },
    {
      "inputs": [
        {
          "internalType": "uint256",
          "name": "_projectId",
          "type": "uint256"
        },
        {
          "internalType": "string",
          "name": "_freelancerFileCID",
          "type": "string"
        }
      ],
      "name": "markReadyForReview",
      "outputs": [],
      "stateMutability": "nonpayable",
      "type": "function"
    },
    {
      "inputs": [
        {
          "internalType": "uint256",
          "name": "_projectId",
          "type": "uint256"
        }
      ],
      "name": "approveProject",
      "outputs": [],
      "stateMutability": "nonpayable",
      "type": "function"
    },
    {
      "inputs": [
        {
          "internalType": "uint256",
          "name": "_projectId",
          "type": "uint256"
        }
      ],
      "name": "disputeProject",
      "outputs": [],
      "stateMutability": "nonpayable",
      "type": "function"
    },
    {
      "inputs": [
        {
          "internalType": "uint256",
          "name": "_projectId",
          "type": "uint256"
        },
        {
          "internalType": "string",
          "name": "_freelancerFileCID",
          "type": "string"
        }
      ],
      "name": "resubmitProject",
      "outputs": [],
      "stateMutability": "nonpayable",
      "type": "function"
    },
    {
      "inputs": [
        {
          "internalType": "uint256",
          "name": "_projectId",
          "type": "uint256"
        }
      ],
      "name": "checkDeadlines",
      "outputs": [],
      "stateMutability": "nonpayable",
      "type": "function"
    }
  ],
  "bytecode": "0x60806040523480156200001157600080fd5b5060405162002ced38038062002ced83398101604081905262000034916200005a565b600080546001600160a01b0319166001600160a01b03929092169190911790556200008a565b6000602082840312156200006c578081fd5b81516001600160a01b038116811462000083578182fd5b9392505050565b612c53806200009a6000396000f3fe6080604052600436106101395760003560e01c80635a297de0116100ab578063ae9b3e4e1161006f578063ae9b3e4e14610370578063af1cc83714610370578063b5bb59c014610385578063cf7be6ec146103a7578063ec201e84146103c7578063fc69d836146103e757610140565b80635a297de0146102cb578063604e2a04146102eb5780636e2ec4dc1461031b5780637e2147541461033b5780638307b66b1461035057610140565b806324112d5b116100fd57806324112d5b14610221578063275bbe9b1461024157806336fbad26146102635780633b76594d146102785780634d68282f1461028b57806358101b8f146102ab57610140565b806304199ee7146101455780630ec87a951461017b578063107046bd1461019d57806321bd6693146101d35780632245f1521461020157610140565b3661014057005b600080fd5b34801561015157600080fd5b50610165610160366004611fdc565b610407565b60405161017291906128b3565b60405180910390f35b34801561018757600080fd5b5061019b6101963660046120ae565b61048e565b005b3480156101a957600080fd5b506101bd6101b83660046120ae565b610730565b6040516101729a99989796959493929190612982565b3480156101df57600080fd5b506101f36101ee366004611fdc565b6109b5565b6040516101729291906121a6565b34801561020d57600080fd5b5061019b61021c3660046120ae565b6109da565b34801561022d57600080fd5b5061019b61023c3660046120ae565b610c51565b34801561024d57600080fd5b50610256610d77565b6040516101729190612192565b34801561026f57600080fd5b50610165610d86565b61019b6102863660046120ae565b610d8c565b34801561029757600080fd5b5061019b6102a63660046120ae565b610e4a565b3480156102b757600080fd5b506101f36102c6366004612123565b61100e565b3480156102d757600080fd5b5061019b6102e63660046120de565b611054565b3480156102f757600080fd5b5061030b6103063660046120ae565b61119a565b604051610172949392919061220c565b34801561032757600080fd5b5061019b610336366004612123565b6111c6565b34801561034757600080fd5b5061016561130c565b34801561035c57600080fd5b5061019b61036b3660046120de565b611313565b34801561037c57600080fd5b5061016561144c565b34801561039157600080fd5b5061039a611453565b60405161017291906121bf565b3480156103b357600080fd5b5061019b6103c236600461202a565b6115e1565b3480156103d357600080fd5b5061019b6103e23660046120ae565b61177b565b3480156103f357600080fd5b5061019b6104023660046120ae565b611a68565b600080546040516370a0823160e01b81526001600160a01b03909116906370a0823190610438908590600401612192565b60206040518083038186803b15801561045057600080fd5b505afa158015610464573d6000803e3d6000fd5b505050506040513d601f19601f8201168201806040525081019061048891906120c6565b92915050565b600081815260016020908152604080832060059092529091206006820154610100900460ff16156104da5760405162461bcd60e51b81526004016104d190612883565b60405180910390fd5b6000815460ff16600481111561050057634e487b7160e01b600052602160045260246000fd5b1415801561053257506004815460ff16600481111561052f57634e487b7160e01b600052602160045260246000fd5b14155b61054e5760405162461bcd60e51b81526004016104d19061264b565b6001815460ff16600481111561057457634e487b7160e01b600052602160045260246000fd5b148015610592575062093a80816001015461058f9190612b43565b42115b1561061b57600682018054600160ff199182168117909255825460049284929190911690835b02179055506105c683611bad565b600482015460058301546040517fb3eac2645738638caada3bff2a4104bfb7812da7cef141ddf90de34fd6a01b629261060c9287926001600160a01b03909216916128f8565b60405180910390a1505061072d565b6002815460ff16600481111561064157634e487b7160e01b600052602160045260246000fd5b14801561065f57506203f480816002015461065c9190612b43565b42115b156106745761066d83611cca565b505061072d565b6003815460ff16600481111561069a57634e487b7160e01b600052602160045260246000fd5b1480156106b857506203f48081600101546106b59190612b43565b42115b156106e257600682018054600160ff199182168117909255825460049284929190911690836105b8565b6002815460ff16600481111561070857634e487b7160e01b600052602160045260246000fd5b14801561071c575080600101548160020154115b1561072a5761066d83611cca565b50505b50565b60016020819052600091825260409091208054918101805461075190612b7b565b80601f016020809104026020016040519081016040528092919081815260200182805461077d90612b7b565b80156107ca5780601f1061079f576101008083540402835291602001916107ca565b820191906000526020600020905b8154815290600101906020018083116107ad57829003601f168201915b5050505050908060020180546107df90612b7b565b80601f016020809104026020016040519081016040528092919081815260200182805461080b90612b7b565b80156108585780601f1061082d57610100808354040283529160200191610858565b820191906000526020600020905b81548152906001019060200180831161083b57829003601f168201915b50505050600383015460048401546005850154600686015460078701805496976001600160a01b0395861697959094169550919360ff808316946101009093041692906108a490612b7b565b80601f01602080910402602001604051908101604052809291908181526020018280546108d090612b7b565b801561091d5780601f106108f25761010080835404028352916020019161091d565b820191906000526020600020905b81548152906001019060200180831161090057829003601f168201915b50505050509080600801805461093290612b7b565b80601f016020809104026020016040519081016040528092919081815260200182805461095e90612b7b565b80156109ab5780601f10610980576101008083540402835291602001916109ab565b820191906000526020600020905b81548152906001019060200180831161098e57829003601f168201915b505050505090508a565b600260205260009081526040902080546001909101546001600160a01b039091169082565b600081815260016020526040902060038101546001600160a01b03163314610a145760405162461bcd60e51b81526004016104d190612321565b60048101546001600160a01b0316610a3e5760405162461bcd60e51b81526004016104d190612363565b6006810154610100900460ff1615610a685760405162461bcd60e51b81526004016104d190612883565b60068101805460ff1916600117905560005460048083015460405163a9059cbb60e01b815268056bc75e2d63100000936001600160a01b039081169363a9059cbb93610ab9939216918691016121a6565b602060405180830381600087803b158015610ad357600080fd5b505af1158015610ae7573d6000803e3d6000fd5b505050506040513d601f19601f82011682018060405250810190610b0b919061200a565b506000546004808401546040516370a0823160e01b81526001600160a01b03938416936370a0823193610b42939091169101612192565b60206040518083038186803b158015610b5a57600080fd5b505afa158015610b6e573d6000803e3d6000fd5b505050506040513d601f19601f82011682018060405250810190610b9291906120c6565b6004830180546001600160a01b03908116600090815260026020526040908190206001019390935560038501549154600586015493517fa4b11fcfec9227f7eeba07f17d16eb5091f2ea60c117dd7a3a5e6b48242f1cbe94610bfb9489949081169316916128d3565b60405180910390a160048201546040517f99a3d10b89b07674fcd46bd1678cb120c3c0e2bdd33ab6c1ed9907208907a32191610c44916001600160a01b039091169084906121a6565b60405180910390a1505050565b6000818152600160209081526040808320600590925290912060038201546001600160a01b03163314610c965760405162461bcd60e51b81526004016104d190612815565b6001815460ff166004811115610cbc57634e487b7160e01b600052602160045260246000fd5b1480610ceb57506003815460ff166004811115610ce957634e487b7160e01b600052602160045260246000fd5b145b610d075760405162461bcd60e51b81526004016104d1906124f1565b6006820154610100900460ff1615610d315760405162461bcd60e51b81526004016104d190612883565b805460ff191660029081178255429082018190556040517f09eb86328abbbb332b0f2385548c2c581e0c4f61034bad4d4f77c49b82853d3491610c4491869133916128f8565b6000546001600160a01b031681565b60045481565b600081815260016020526040902060038101546001600160a01b03163314610dc65760405162461bcd60e51b81526004016104d190612614565b6000816005015411610dea5760405162461bcd60e51b81526004016104d190612283565b80600501543414610e0d5760405162461bcd60e51b81526004016104d190612762565b7f26679fa1f3868c950e9362f1106cf73f3318de0280e0411a3c68e4b463eadd4f8234604051610e3e929190612b1f565b60405180910390a15050565b600081815260016020526040902060038101546001600160a01b03163314610e845760405162461bcd60e51b81526004016104d19061284c565b600681015460ff16610ea85760405162461bcd60e51b81526004016104d190612594565b6006810154610100900460ff1615610ed25760405162461bcd60e51b81526004016104d190612883565b8060050154471015610ef65760405162461bcd60e51b81526004016104d1906126e9565b600481015460058201546040516000926001600160a01b03169161c35091610f1d9061218f565b600060405180830381858888f193505050503d8060008114610f5b576040519150601f19603f3d011682016040523d82523d6000602084013e610f60565b606091505b505090508015610fd15760068201805461ff001916610100179055600482015460058301546040517f3649876827f5d911fc0aa74f593cdc51500840915ec37032581ed010f08f5f0a92610fc49287926001600160a01b0390921691600190612917565b60405180910390a161072a565b600080516020612bfe83398151915283604051610fee9190612a19565b60405180910390a160405162461bcd60e51b81526004016104d190612720565b6003602052816000526040600020818154811061102a57600080fd5b6000918252602090912060029091020180546001909101546001600160a01b039091169250905082565b6000828152600160209081526040808320600590925290912060048201546001600160a01b031633146110995760405162461bcd60e51b81526004016104d190612423565b60048201546001600160a01b03166110c35760405162461bcd60e51b81526004016104d190612363565b6006820154610100900460ff16156110ed5760405162461bcd60e51b81526004016104d190612883565b6000815460ff16600481111561111357634e487b7160e01b600052602160045260246000fd5b146111305760405162461bcd60e51b81526004016104d1906126b2565b82516111459060088401906020860190611ec2565b50805460ff191660019081178255429082018190556040517fcc1f37fb11ae585a69b11afeeddd809b93377adbb148e0e73fa151b40759afe79161118c91879133916128f8565b60405180910390a150505050565b600560205260009081526040902080546001820154600283015460039093015460ff9283169391921684565b600082815260016020526040902060038101546001600160a01b03166111fe5760405162461bcd60e51b81526004016104d190612682565b60048101546001600160a01b0316156112295760405162461bcd60e51b81526004016104d190612528565b600083815260036020908152604080832081518083018352338082528185018881528354600180820186559488528688209351600291820290940180546001600160a01b0319166001600160a01b03958616178155915191909401558552925290912054166112d95760408051808201825233808252600060208084018281529282526002905292909220905181546001600160a01b0319166001600160a01b0390911617815590516001909101555b7f050735b04e4d0bf45ad597f4500f17ba72e51b05b0fc1bad63807ab65ca812ab833384604051610c44939291906128f8565b62093a8081565b6000828152600160209081526040808320600590925290912060048201546001600160a01b031633146113585760405162461bcd60e51b81526004016104d1906125cb565b6002815460ff16600481111561137e57634e487b7160e01b600052602160045260246000fd5b1461139b5760405162461bcd60e51b81526004016104d1906127de565b6006820154610100900460ff16156113c55760405162461bcd60e51b81526004016104d190612883565b6203f48081600201546113d89190612b43565b4211156113f75760405162461bcd60e51b81526004016104d1906122b3565b825161140c9060088401906020860190611ec2565b50805460ff191660031781556040517f6a6801c84b5eafecb7a729602448a0b85b863b083b6df28e288903334a14b4d89061118c908690339042906128f8565b6203f48081565b6060600060045467ffffffffffffffff81111561148057634e487b7160e01b600052604160045260246000fd5b6040519080825280602002602001820160405280156114a9578160200160208202803683370190505b509050600060015b60045481116115d957600081815260036020908152604080832080548251818502810185019093528083529192909190849084015b8282101561152e576000848152602090819020604080518082019091526002850290910180546001600160a01b031682526001908101548284015290835290920191016114e6565b50505050905060005b81518110156115c45781818151811061156057634e487b7160e01b600052603260045260246000fd5b60200260200101516000015185858151811061158c57634e487b7160e01b600052603260045260246000fd5b6001600160a01b0390921660209283029190910190910152836115ae81612bb6565b94505080806115bc90612bb6565b915050611537565b505080806115d190612bb6565b9150506114b1565b509091505090565b600480549060006115f183612bb6565b90915550506040805161014081018252600454808252602080830187815283850187905233606085015260006080850181905260a0850181905260c0850181905260e0850181905261010085018790528551808401875281815261012086015292835260018083529490922083518155915180519394929361167a938501929190910190611ec2565b5060408201518051611696916002840191602090910190611ec2565b5060608201516003820180546001600160a01b03199081166001600160a01b03938416179091556080840151600484018054909216921691909117905560a0820151600582015560c082015160068201805460e085015160ff199091169215159290921761ff00191661010092151583021790558201518051611723916007840191602090910190611ec2565b506101208201518051611740916008840191602090910190611ec2565b509050507fedfd921b9d3f1e2d61625b6c7cbf436b8651ea7c5c83e688277f1600fdcb1f26600454848433604051610c44949392919061293d565b600081815260016020526040902060038101546001600160a01b031633146117b55760405162461bcd60e51b81526004016104d1906123de565b60048101546001600160a01b0316156117e05760405162461bcd60e51b81526004016104d1906127a7565b600082815260036020908152604080832080548251818502810185019093528083529192909190849084015b82821015611854576000848152602090819020604080518082019091526002850290910180546001600160a01b0316825260019081015482840152908352909201910161180c565b505050509050600081511161187b5760405162461bcd60e51b81526004016104d19061224c565b600060001981805b84518110156119d95760008582815181106118ae57634e487b7160e01b600052603260045260246000fd5b602090810291909101015151600080546040516370a0823160e01b815292935090916001600160a01b03909116906370a08231906118f0908590600401612192565b60206040518083038186803b15801561190857600080fd5b505afa15801561191c573d6000803e3d6000fd5b505050506040513d601f19601f8201168201806040525081019061194091906120c6565b9050600087848151811061196457634e487b7160e01b600052603260045260246000fd5b6020026020010151602001519050848211806119895750848214801561198957508581105b156119c3578194508784815181106119b157634e487b7160e01b600052603260045260246000fd5b60200260200101516020015195508296505b50505080806119d190612bb6565b915050611883565b506001600160a01b038316611a005760405162461bcd60e51b81526004016104d1906122ea565b6004850180546001600160a01b0319166001600160a01b038516179055600585018290556040517fdd33626ddad41a9d8289ee8abbbd0b8f5a72a0e1e8661ef3ab9774ed4cf6a27690611a58908890869086906128f8565b60405180910390a1505050505050565b6000818152600160209081526040808320600590925290912060038201546001600160a01b03163314611aad5760405162461bcd60e51b81526004016104d19061255d565b6001815460ff166004811115611ad357634e487b7160e01b600052602160045260246000fd5b1480611b0257506003815460ff166004811115611b0057634e487b7160e01b600052602160045260246000fd5b145b611b1e5760405162461bcd60e51b81526004016104d1906124ba565b6006820154610100900460ff1615611b485760405162461bcd60e51b81526004016104d190612883565b60068201805460ff1990811660019081179092558254811660041783556003830180549091169091179055611b7c83611bad565b7fae45c6260346930c9824dfa2888d501cfd9372f592303b38f7788326fc22f0168333604051610c449291906128bc565b60008181526001602052604090206005810154471015611bdf5760405162461bcd60e51b81526004016104d1906126e9565b600481015460058201546040516000926001600160a01b03169161c35091611c069061218f565b600060405180830381858888f193505050503d8060008114611c44576040519150601f19603f3d011682016040523d82523d6000602084013e611c49565b606091505b505090508015611cad5760068201805461ff001916610100179055600482015460058301546040517f3649876827f5d911fc0aa74f593cdc51500840915ec37032581ed010f08f5f0a92610fc49287926001600160a01b0390921691600190612917565b600080516020612bfe83398151915283604051610fee9190612a96565b60008181526001602052604090206005810154471015611cfc5760405162461bcd60e51b81526004016104d1906126e9565b600060028260050154611d0f9190612b5b565b60048301546040519192506000916001600160a01b039091169061c350908490611d389061218f565b600060405180830381858888f193505050503d8060008114611d76576040519150601f19603f3d011682016040523d82523d6000602084013e611d7b565b606091505b5050905080611dc157600080516020612bfe83398151915284604051611da19190612a49565b60405180910390a160405162461bcd60e51b81526004016104d190612393565b60038301546040516000916001600160a01b03169061c350908590611de59061218f565b600060405180830381858888f193505050503d8060008114611e23576040519150601f19603f3d011682016040523d82523d6000602084013e611e28565b606091505b5050905080611e6e57600080516020612bfe83398151915285604051611e4e9190612ad4565b60405180910390a160405162461bcd60e51b81526004016104d190612471565b60068401805461ff0019166101001790556040517f50ecfcc47f2c5b2a26f91422abf650476ec7f701c48b1cf6d1d6d4d51a872ed690611eb390879086908190612b2d565b60405180910390a15050505050565b828054611ece90612b7b565b90600052602060002090601f016020900481019282611ef05760008555611f36565b82601f10611f0957805160ff1916838001178555611f36565b82800160010185558215611f36579182015b82811115611f36578251825591602001919060010190611f1b565b50611f42929150611f46565b5090565b5b80821115611f425760008155600101611f47565b600082601f830112611f6b578081fd5b813567ffffffffffffffff80821115611f8657611f86612be7565b604051601f8301601f191681016020018281118282101715611faa57611faa612be7565b604052828152848301602001861015611fc1578384fd5b82602086016020830137918201602001929092529392505050565b600060208284031215611fed578081fd5b81356001600160a01b0381168114612003578182fd5b9392505050565b60006020828403121561201b578081fd5b81518015158114612003578182fd5b60008060006060848603121561203e578182fd5b833567ffffffffffffffff80821115612055578384fd5b61206187838801611f5b565b94506020860135915080821115612076578384fd5b61208287838801611f5b565b93506040860135915080821115612097578283fd5b506120a486828701611f5b565b9150509250925092565b6000602082840312156120bf578081fd5b5035919050565b6000602082840312156120d7578081fd5b5051919050565b600080604083850312156120f0578182fd5b82359150602083013567ffffffffffffffff81111561210d578182fd5b61211985828601611f5b565b9150509250929050565b60008060408385031215612135578182fd5b50508035926020909101359150565b60008151808452815b818110156121695760208185018101518683018201520161214d565b8181111561217a5782602083870101525b50601f01601f19169290920160200192915050565b90565b6001600160a01b0391909116815260200190565b6001600160a01b03929092168252602082015260400190565b6020808252825182820181905260009190848201906040850190845b818110156122005783516001600160a01b0316835292840192918401916001016121db565b50909695505050505050565b608081016005861061222e57634e487b7160e01b600052602160045260246000fd5b94815260208101939093526040830191909152151560609091015290565b6020808252601b908201527f4e6f20667265656c616e636572732068617665206170706c6965640000000000604082015260600190565b602080825260169082015275109a5908185b5bdd5b9d081b5d5cdd081899481cd95d60521b604082015260600190565b6020808252601c908201527f52657375626d697373696f6e20646561646c696e652070617373656400000000604082015260600190565b6020808252601c908201527f4e6f207375697461626c6520667265656c616e63657220666f756e6400000000604082015260600190565b60208082526022908201527f4f6e6c7920656d706c6f7965722063616e206d61726b20617320636f6d706c65604082015261746560f01b606082015260800190565b602080825260169082015275139bc8199c99595b185b98d95c88185cdcda59db995960521b604082015260600190565b6020808252602b908201527f4661696c656420746f2073656e6420457468657220746f20667265656c616e6360408201526a195c881a5b881cdc1b1a5d60aa1b606082015260800190565b60208082526025908201527f4f6e6c7920656d706c6f7965722063616e2061737369676e206120667265656c60408201526430b731b2b960d91b606082015260800190565b6020808252602e908201527f4f6e6c79207468652061737369676e656420667265656c616e6365722063616e60408201526d206d61726b20617320726561647960901b606082015260800190565b60208082526029908201527f4661696c656420746f2073656e6420457468657220746f20656d706c6f796572604082015268081a5b881cdc1b1a5d60ba1b606082015260800190565b6020808252601c908201527f50726f6a656374206e6f7420726561647920666f722072657669657700000000604082015260600190565b6020808252601d908201527f50726f6a656374206e6f7420726561647920666f722064697370757465000000604082015260600190565b6020808252818101527f50726f6a65637420616c726561647920686173206120667265656c616e636572604082015260600190565b6020808252601d908201527f4f6e6c792074686520656d706c6f7965722063616e20617070726f7665000000604082015260600190565b60208082526019908201527f50726f6a656374206d75737420626520636f6d706c6574656400000000000000604082015260600190565b60208082526029908201527f4f6e6c79207468652061737369676e656420667265656c616e6365722063616e604082015268081c995cdd589b5a5d60ba1b606082015260800190565b6020808252601f908201527f4f6e6c7920656d706c6f7965722063616e206465706f7369742066756e647300604082015260600190565b6020808252601d908201527f50726f6a656374206e6f7420696e206120726576696577207374617465000000604082015260600190565b602080825260169082015275141c9bda9958dd08191bd95cc81b9bdd08195e1a5cdd60521b604082015260600190565b6020808252601e908201527f50726f6a656374206973206e6f7420696e206163746976652073746174650000604082015260600190565b6020808252601d908201527f496e73756666696369656e7420636f6e74726163742062616c616e6365000000604082015260600190565b60208082526022908201527f4661696c656420746f2073656e6420457468657220746f20667265656c616e6360408201526132b960f11b606082015260800190565b60208082526025908201527f4465706f736974206d757374206d61746368207468652070726f6a65637420616040820152641b5bdd5b9d60da1b606082015260800190565b6020808252601b908201527f467265656c616e63657220616c72656164792061737369676e65640000000000604082015260600190565b6020808252601d908201527f50726f6a656374206e6f7420696e206469737075746564207374617465000000604082015260600190565b6020808252601d908201527f4f6e6c792074686520656d706c6f7965722063616e2064697370757465000000604082015260600190565b6020808252601f908201527f4f6e6c7920656d706c6f7965722063616e2072656c656173652066756e647300604082015260600190565b602080825260169082015275119d5b991cc8185b1c9958591e481c995b19585cd95960521b604082015260600190565b90815260200190565b9182526001600160a01b0316602082015260400190565b9384526001600160a01b03928316602085015291166040830152606082015260800190565b9283526001600160a01b03919091166020830152604082015260600190565b9384526001600160a01b0392909216602084015260408301521515606082015260800190565b6000858252608060208301526129566080830186612144565b82810360408401526129688186612144565b91505060018060a01b038316606083015295945050505050565b60006101408c835280602084015261299c8184018d612144565b905082810360408401526129b0818c612144565b6001600160a01b038b811660608601528a16608085015260a0840189905287151560c085015286151560e085015283810361010085015290506129f38186612144565b9050828103610120840152612a088185612144565b9d9c50505050505050505050505050565b908152604060208201819052600f908201526e151c985b9cd9995c8819985a5b1959608a1b606082015260800190565b9081526040602082018190526026908201527f5472616e7366657220746f20667265656c616e636572206661696c656420696e606082015265081cdc1b1a5d60d21b608082015260a00190565b908152604060208201819052601d908201527f5472616e7366657220746f20667265656c616e636572206661696c6564000000606082015260800190565b9081526040602082018190526024908201527f5472616e7366657220746f20656d706c6f796572206661696c656420696e20736060820152631c1b1a5d60e21b608082015260a00190565b918252602082015260400190565b9283526020830191909152604082015260600190565b60008219821115612b5657612b56612bd1565b500190565b600082612b7657634e487b7160e01b81526012600452602481fd5b500490565b600281046001821680612b8f57607f821691505b60208210811415612bb057634e487b7160e01b600052602260045260246000fd5b50919050565b6000600019821415612bca57612bca612bd1565b5060010190565b634e487b7160e01b600052601160045260246000fd5b634e487b7160e01b600052604160045260246000fdfed4bbf0b04df29a69dd15318790f63fcd0524c5b186c461d70e8b2935fd9dc6f7a26469706673582212205b9a8174520c43ca593e190c96783d20be47914676c771437cb0f86b283be95564736f6c63430008000033",
  "immutableReferences": {},
  "source": "// SPDX-License-Identifier: UNLICENSED\r\npragma solidity ^0.8.0;\r\n\r\ninterface IReputationToken {\r\n    function transfer(address _to, uint256 _value) external returns (bool success);\r\n    function balanceOf(address _owner) external view returns (uint256 balance);\r\n}\r\n\r\ncontract HireChain {\r\n    enum Role { Employer, Freelancer }\r\n\r\n    struct Project {\r\n        uint256 id;\r\n        string name;\r\n        string description;\r\n        address employer;\r\n        address freelancer;\r\n        uint256 bidAmount;\r\n        bool completed;\r\n        bool isPaid;\r\n        string employerFileCID;  // New: CID of the employer's file\r\n        string freelancerFileCID; // New: CID of the freelancer's file\r\n    }\r\n\r\n    struct Freelancer {\r\n        address freelancerAddress;\r\n        uint256 reputation; // Mirrors token balance for simplicity\r\n    }\r\n\r\n    struct FeeProposal {\r\n        address freelancer;\r\n        uint256 proposedFee;\r\n    }\r\n\r\n    IReputationToken public reputationToken;\r\n    mapping(uint256 => Project) public projects;\r\n    mapping(address => Freelancer) public freelancers;\r\n    mapping(uint256 => FeeProposal[]) public feeProposals;\r\n    uint256 public projectCount;\r\n\r\n    event ProjectCreated(uint256 id, string name, string description, address employer);\r\n    event ProjectCompleted(uint256 id, address employer, address freelancer, uint256 bidAmount);\r\n    event ProjectApplied(uint256 id, address freelancer, uint256 bidAmount);\r\n    event FreelancerAssigned(uint256 id, address freelancer, uint256 proposedFee);\r\n    event FundsDeposited(uint id, uint256 bidAmount);\r\n    event FundsReleased(uint id, address freelancer, uint256 bidAmount, bool success);\r\n    event ReputationAwarded(address freelancer, uint256 amount);\r\n    event TransferFailed(uint id, string reason);\r\n\r\n    constructor(address _reputationTokenAddress) {\r\n        reputationToken = IReputationToken(_reputationTokenAddress);\r\n    }\r\n\r\n    function createProject(string memory _name, string memory _description, string memory _employerFileCID) public {\r\n        projectCount++;\r\n        projects[projectCount] = Project(projectCount, _name, _description, msg.sender, address(0), 0, false, false, _employerFileCID, \"\");\r\n        emit ProjectCreated(projectCount, _name, _description, msg.sender);\r\n    }\r\n\r\n    function depositFunds(uint _projectId) public payable {\r\n        Project storage project = projects[_projectId];\r\n        require(msg.sender == project.employer, \"Only employer can deposit funds\");\r\n        require(project.bidAmount > 0, \"Bid amount must be set\");\r\n        require(msg.value == project.bidAmount, \"Deposit must match the project amount\");\r\n        emit FundsDeposited(_projectId, msg.value);\r\n    }\r\n\r\n    function applyForProject(uint256 _projectId, uint256 _bidAmount) public {\r\n        Project storage project = projects[_projectId];\r\n        require(project.employer != address(0), \"Project does not exist\");\r\n        require(project.freelancer == address(0), \"Project already has a freelancer\");\r\n        feeProposals[_projectId].push(FeeProposal(msg.sender, _bidAmount));\r\n        if (freelancers[msg.sender].freelancerAddress == address(0)) {\r\n            freelancers[msg.sender] = Freelancer(msg.sender, 0);\r\n        }\r\n        emit ProjectApplied(_projectId, msg.sender, _bidAmount);\r\n    }\r\n\r\n    function assignFreelancer(uint256 _projectId) public {\r\n        Project storage project = projects[_projectId];\r\n        require(msg.sender == project.employer, \"Only employer can assign a freelancer\");\r\n        require(project.freelancer == address(0), \"Freelancer already assigned\");\r\n\r\n        FeeProposal[] memory proposals = feeProposals[_projectId];\r\n        require(proposals.length > 0, \"No freelancers have applied\");\r\n\r\n        address bestFreelancer = address(0);\r\n        uint256 minFee = type(uint256).max;\r\n        uint256 maxReputation = 0;\r\n\r\n        for (uint256 i = 0; i < proposals.length; i++) {\r\n            address freelancer = proposals[i].freelancer;\r\n            uint256 freelancerRep = reputationToken.balanceOf(freelancer);\r\n            uint256 proposedFee = proposals[i].proposedFee;\r\n\r\n            if (freelancerRep > maxReputation || (freelancerRep == maxReputation && proposedFee < minFee)) {\r\n                maxReputation = freelancerRep;\r\n                minFee = proposals[i].proposedFee;\r\n                bestFreelancer = freelancer;\r\n            }\r\n        }\r\n\r\n        require(bestFreelancer != address(0), \"No suitable freelancer found\");\r\n        project.freelancer = bestFreelancer;\r\n        project.bidAmount = minFee;\r\n        emit FreelancerAssigned(_projectId, bestFreelancer, minFee);\r\n    }\r\n\r\n    function completeProject(uint256 _projectId) public {\r\n        Project storage project = projects[_projectId];\r\n        require(msg.sender == project.employer, \"Only employer can mark as complete\");\r\n        require(project.freelancer != address(0), \"No freelancer assigned\");\r\n        require(!project.isPaid, \"Funds already released\");\r\n\r\n        project.completed = true;\r\n        uint256 reward = 100 * 10**18; // 100 REP tokens\r\n        reputationToken.transfer(project.freelancer, reward);\r\n        freelancers[project.freelancer].reputation = reputationToken.balanceOf(project.freelancer);\r\n        emit ProjectCompleted(_projectId, project.employer, project.freelancer, project.bidAmount);\r\n        emit ReputationAwarded(project.freelancer, reward);\r\n    }\r\n\r\n    function releaseFunds(uint256 _projectId) public {\r\n        Project storage project = projects[_projectId];\r\n        require(msg.sender == project.employer, \"Only employer can release funds\");\r\n        require(project.completed, \"Project must be completed\");\r\n        require(!project.isPaid, \"Funds already released\");\r\n        require(address(this).balance >= project.bidAmount, \"Insufficient contract balance\");\r\n\r\n        (bool sent, ) = project.freelancer.call{value: project.bidAmount, gas: 50000}(\"\");\r\n        if (sent) {\r\n            project.isPaid = true;\r\n            emit FundsReleased(_projectId, project.freelancer, project.bidAmount, true);\r\n        } else {\r\n            emit TransferFailed(_projectId, \"Transfer failed\");\r\n            revert(\"Failed to send Ether to freelancer\");\r\n        }\r\n    }\r\n\r\n    function getFreelancerReputation(address _freelancer) public view returns (uint256) {\r\n        return reputationToken.balanceOf(_freelancer);\r\n    }\r\n\r\n    function getFreelancers() public view returns (address[] memory) {\r\n        address[] memory allFreelancers = new address[](projectCount);\r\n        uint256 index = 0;\r\n        for (uint256 i = 1; i <= projectCount; i++) {\r\n            FeeProposal[] memory proposals = feeProposals[i];\r\n            for (uint256 j = 0; j < proposals.length; j++) {\r\n                allFreelancers[index] = proposals[j].freelancer;\r\n                index++;\r\n            }\r\n        }\r\n        return allFreelancers;\r\n    }\r\n\r\n    receive() external payable {}\r\n\r\n    // --- Existing Code for Mutual Agreement with Dispute Resolution ---\r\n\r\n    enum ProjectState { Active, ReadyForReview, Disputed, Resubmitted, Completed }\r\n\r\n    struct ReviewStatus {\r\n        ProjectState state;\r\n        uint256 readyForReviewTimestamp;\r\n        uint256 disputeTimestamp;\r\n        bool employerApproved;\r\n    }\r\n\r\n    mapping(uint256 => ReviewStatus) public reviewStatuses;\r\n\r\n    uint256 public constant EMPLOYER_REVIEW_DEADLINE = 7 days;\r\n    uint256 public constant FREELANCER_RESUBMIT_DEADLINE = 3 days;\r\n    uint256 public constant EMPLOYER_REDISPUTE_DEADLINE = 3 days;\r\n\r\n    event ProjectMarkedReadyForReview(uint256 projectId, address freelancer, uint256 timestamp);\r\n    event ProjectApproved(uint256 projectId, address employer);\r\n    event ProjectDisputed(uint256 projectId, address employer, uint256 timestamp);\r\n    event ProjectResubmitted(uint256 projectId, address freelancer, uint256 timestamp);\r\n    event FundsAutoReleased(uint256 projectId, address freelancer, uint256 amount);\r\n    event FundsSplit(uint256 projectId, uint256 employerAmount, uint256 freelancerAmount);\r\n\r\n    function markReadyForReview(uint256 _projectId, string memory _freelancerFileCID) public {\r\n        Project storage project = projects[_projectId];\r\n        ReviewStatus storage review = reviewStatuses[_projectId];\r\n\r\n        require(msg.sender == project.freelancer, \"Only the assigned freelancer can mark as ready\");\r\n        require(project.freelancer != address(0), \"No freelancer assigned\");\r\n        require(!project.isPaid, \"Funds already released\");\r\n        require(review.state == ProjectState.Active, \"Project is not in active state\");\r\n\r\n        project.freelancerFileCID = _freelancerFileCID; // Store the freelancer's file CID\r\n        review.state = ProjectState.ReadyForReview;\r\n        review.readyForReviewTimestamp = block.timestamp;\r\n        emit ProjectMarkedReadyForReview(_projectId, msg.sender, block.timestamp);\r\n    }\r\n\r\n    function approveProject(uint256 _projectId) public {\r\n        Project storage project = projects[_projectId];\r\n        ReviewStatus storage review = reviewStatuses[_projectId];\r\n\r\n        require(msg.sender == project.employer, \"Only the employer can approve\");\r\n        require(review.state == ProjectState.ReadyForReview || review.state == ProjectState.Resubmitted, \"Project not ready for review\");\r\n        require(!project.isPaid, \"Funds already released\");\r\n\r\n        project.completed = true;\r\n        review.state = ProjectState.Completed;\r\n        review.employerApproved = true;\r\n\r\n        releaseFundsToFreelancer(_projectId);\r\n        emit ProjectApproved(_projectId, msg.sender);\r\n    }\r\n\r\n    function disputeProject(uint256 _projectId) public {\r\n        Project storage project = projects[_projectId];\r\n        ReviewStatus storage review = reviewStatuses[_projectId];\r\n\r\n        require(msg.sender == project.employer, \"Only the employer can dispute\");\r\n        require(review.state == ProjectState.ReadyForReview || review.state == ProjectState.Resubmitted, \"Project not ready for dispute\");\r\n        require(!project.isPaid, \"Funds already released\");\r\n\r\n        review.state = ProjectState.Disputed;\r\n        review.disputeTimestamp = block.timestamp;\r\n        emit ProjectDisputed(_projectId, msg.sender, block.timestamp);\r\n    }\r\n\r\n    function resubmitProject(uint256 _projectId, string memory _freelancerFileCID) public {\r\n        Project storage project = projects[_projectId];\r\n        ReviewStatus storage review = reviewStatuses[_projectId];\r\n\r\n        require(msg.sender == project.freelancer, \"Only the assigned freelancer can resubmit\");\r\n        require(review.state == ProjectState.Disputed, \"Project not in disputed state\");\r\n        require(!project.isPaid, \"Funds already released\");\r\n        require(block.timestamp <= review.disputeTimestamp + FREELANCER_RESUBMIT_DEADLINE, \"Resubmission deadline passed\");\r\n\r\n        project.freelancerFileCID = _freelancerFileCID; // Update the freelancer's file CID\r\n        review.state = ProjectState.Resubmitted;\r\n        emit ProjectResubmitted(_projectId, msg.sender, block.timestamp);\r\n    }\r\n\r\n    function checkDeadlines(uint256 _projectId) public {\r\n        Project storage project = projects[_projectId];\r\n        ReviewStatus storage review = reviewStatuses[_projectId];\r\n\r\n        require(!project.isPaid, \"Funds already released\");\r\n        require(review.state != ProjectState.Active && review.state != ProjectState.Completed, \"Project not in a review state\");\r\n\r\n        if (review.state == ProjectState.ReadyForReview &&\r\n            block.timestamp > review.readyForReviewTimestamp + EMPLOYER_REVIEW_DEADLINE) {\r\n            project.completed = true;\r\n            review.state = ProjectState.Completed;\r\n            releaseFundsToFreelancer(_projectId);\r\n            emit FundsAutoReleased(_projectId, project.freelancer, project.bidAmount);\r\n            return;\r\n        }\r\n\r\n        if (review.state == ProjectState.Disputed &&\r\n            block.timestamp > review.disputeTimestamp + FREELANCER_RESUBMIT_DEADLINE) {\r\n            splitFunds(_projectId);\r\n            return;\r\n        }\r\n\r\n        if (review.state == ProjectState.Resubmitted &&\r\n            block.timestamp > review.readyForReviewTimestamp + EMPLOYER_REDISPUTE_DEADLINE) {\r\n            project.completed = true;\r\n            review.state = ProjectState.Completed;\r\n            releaseFundsToFreelancer(_projectId);\r\n            emit FundsAutoReleased(_projectId, project.freelancer, project.bidAmount);\r\n            return;\r\n        }\r\n\r\n        if (review.state == ProjectState.Disputed &&\r\n            review.disputeTimestamp > review.readyForReviewTimestamp) {\r\n            splitFunds(_projectId);\r\n            return;\r\n        }\r\n    }\r\n\r\n    function releaseFundsToFreelancer(uint256 _projectId) internal {\r\n        Project storage project = projects[_projectId];\r\n        require(address(this).balance >= project.bidAmount, \"Insufficient contract balance\");\r\n\r\n        (bool sent, ) = project.freelancer.call{value: project.bidAmount, gas: 50000}(\"\");\r\n        if (sent) {\r\n            project.isPaid = true;\r\n            emit FundsReleased(_projectId, project.freelancer, project.bidAmount, true);\r\n        } else {\r\n            emit TransferFailed(_projectId, \"Transfer to freelancer failed\");\r\n            revert(\"Failed to send Ether to freelancer\");\r\n        }\r\n    }\r\n\r\n    function splitFunds(uint256 _projectId) internal {\r\n        Project storage project = projects[_projectId];\r\n        require(address(this).balance >= project.bidAmount, \"Insufficient contract balance\");\r\n\r\n        uint256 halfAmount = project.bidAmount / 2;\r\n\r\n        (bool sentFreelancer, ) = project.freelancer.call{value: halfAmount, gas: 50000}(\"\");\r\n        if (!sentFreelancer) {\r\n            emit TransferFailed(_projectId, \"Transfer to freelancer failed in split\");\r\n            revert(\"Failed to send Ether to freelancer in split\");\r\n        }\r\n\r\n        (bool sentEmployer, ) = project.employer.call{value: halfAmount, gas: 50000}(\"\");\r\n        if (!sentEmployer) {\r\n            emit TransferFailed(_projectId, \"Transfer to employer failed in split\");\r\n            revert(\"Failed to send Ether to employer in split\");\r\n        }\r\n\r\n        project.isPaid = true;\r\n        emit FundsSplit(_projectId, halfAmount, halfAmount);\r\n    }\r\n}",
  "sourcePath": "C:\\Users\\NAVJOTH RAI\\HC\\contracts\\HireChain.sol",
  "compiler": {
    "name": "solc",
    "version": "0.8.0+commit.c7dfd78e.Emscripten.clang"
  },
  "schemaVersion": "3.4.16",
  "updatedAt": "2025-03-21T19:19:39.564Z",
  "networkType": "ethereum",
  "devdoc": {
    "kind": "dev",
    "methods": {},
    "version": 1
  },
  "userdoc": {
    "kind": "user",
    "methods": {},
    "version": 1
  }
}