{
  "contractName": "HireChain",
  "abi": [
    {
      "anonymous": false,
      "inputs": [
        {
          "indexed": false,
          "internalType": "uint256",
          "name": "projectId",
          "type": "uint256"
        },
        {
          "indexed": false,
          "internalType": "address",
          "name": "employer",
          "type": "address"
        },
        {
          "indexed": false,
          "internalType": "uint256",
          "name": "bidAmount",
          "type": "uint256"
        }
      ],
      "name": "FundsDeposited",
      "type": "event"
    },
    {
      "anonymous": false,
      "inputs": [
        {
          "indexed": false,
          "internalType": "uint256",
          "name": "projectId",
          "type": "uint256"
        },
        {
          "indexed": false,
          "internalType": "address",
          "name": "freelancer",
          "type": "address"
        },
        {
          "indexed": false,
          "internalType": "uint256",
          "name": "bidAmount",
          "type": "uint256"
        }
      ],
      "name": "FundsReleased",
      "type": "event"
    },
    {
      "anonymous": false,
      "inputs": [
        {
          "indexed": false,
          "internalType": "uint256",
          "name": "id",
          "type": "uint256"
        },
        {
          "indexed": false,
          "internalType": "address",
          "name": "freelancer",
          "type": "address"
        },
        {
          "indexed": false,
          "internalType": "uint256",
          "name": "bidAmount",
          "type": "uint256"
        }
      ],
      "name": "ProjectApplied",
      "type": "event"
    },
    {
      "anonymous": false,
      "inputs": [
        {
          "indexed": false,
          "internalType": "uint256",
          "name": "id",
          "type": "uint256"
        },
        {
          "indexed": false,
          "internalType": "address",
          "name": "employer",
          "type": "address"
        },
        {
          "indexed": false,
          "internalType": "address",
          "name": "freelancer",
          "type": "address"
        },
        {
          "indexed": false,
          "internalType": "uint256",
          "name": "bidAmount",
          "type": "uint256"
        }
      ],
      "name": "ProjectCompleted",
      "type": "event"
    },
    {
      "anonymous": false,
      "inputs": [
        {
          "indexed": false,
          "internalType": "uint256",
          "name": "id",
          "type": "uint256"
        },
        {
          "indexed": false,
          "internalType": "string",
          "name": "name",
          "type": "string"
        },
        {
          "indexed": false,
          "internalType": "string",
          "name": "description",
          "type": "string"
        },
        {
          "indexed": false,
          "internalType": "address",
          "name": "employer",
          "type": "address"
        }
      ],
      "name": "ProjectCreated",
      "type": "event"
    },
    {
      "inputs": [
        {
          "internalType": "address",
          "name": "",
          "type": "address"
        }
      ],
      "name": "freelancers",
      "outputs": [
        {
          "internalType": "address",
          "name": "freelancerAddress",
          "type": "address"
        },
        {
          "internalType": "uint256",
          "name": "reputation",
          "type": "uint256"
        }
      ],
      "stateMutability": "view",
      "type": "function"
    },
    {
      "inputs": [],
      "name": "projectCount",
      "outputs": [
        {
          "internalType": "uint256",
          "name": "",
          "type": "uint256"
        }
      ],
      "stateMutability": "view",
      "type": "function"
    },
    {
      "inputs": [
        {
          "internalType": "uint256",
          "name": "",
          "type": "uint256"
        },
        {
          "internalType": "uint256",
          "name": "",
          "type": "uint256"
        }
      ],
      "name": "projectFreelancers",
      "outputs": [
        {
          "internalType": "address",
          "name": "",
          "type": "address"
        }
      ],
      "stateMutability": "view",
      "type": "function"
    },
    {
      "inputs": [
        {
          "internalType": "uint256",
          "name": "",
          "type": "uint256"
        }
      ],
      "name": "projectFunds",
      "outputs": [
        {
          "internalType": "uint256",
          "name": "",
          "type": "uint256"
        }
      ],
      "stateMutability": "view",
      "type": "function"
    },
    {
      "inputs": [
        {
          "internalType": "uint256",
          "name": "",
          "type": "uint256"
        }
      ],
      "name": "projects",
      "outputs": [
        {
          "internalType": "uint256",
          "name": "id",
          "type": "uint256"
        },
        {
          "internalType": "string",
          "name": "name",
          "type": "string"
        },
        {
          "internalType": "string",
          "name": "description",
          "type": "string"
        },
        {
          "internalType": "address",
          "name": "employer",
          "type": "address"
        },
        {
          "internalType": "address",
          "name": "freelancer",
          "type": "address"
        },
        {
          "internalType": "uint256",
          "name": "bidAmount",
          "type": "uint256"
        },
        {
          "internalType": "bool",
          "name": "completed",
          "type": "bool"
        },
        {
          "internalType": "bool",
          "name": "isFunded",
          "type": "bool"
        },
        {
          "internalType": "uint256",
          "name": "timestamp",
          "type": "uint256"
        }
      ],
      "stateMutability": "view",
      "type": "function"
    },
    {
      "inputs": [
        {
          "internalType": "string",
          "name": "_name",
          "type": "string"
        },
        {
          "internalType": "string",
          "name": "_description",
          "type": "string"
        }
      ],
      "name": "createProject",
      "outputs": [],
      "stateMutability": "nonpayable",
      "type": "function"
    },
    {
      "inputs": [
        {
          "internalType": "uint256",
          "name": "_projectId",
          "type": "uint256"
        }
      ],
      "name": "depositFunds",
      "outputs": [],
      "stateMutability": "payable",
      "type": "function"
    },
    {
      "inputs": [
        {
          "internalType": "uint256",
          "name": "_projectId",
          "type": "uint256"
        },
        {
          "internalType": "uint256",
          "name": "_bidAmount",
          "type": "uint256"
        }
      ],
      "name": "applyForProject",
      "outputs": [],
      "stateMutability": "nonpayable",
      "type": "function"
    },
    {
      "inputs": [
        {
          "internalType": "uint256",
          "name": "_projectId",
          "type": "uint256"
        }
      ],
      "name": "markProjectAsCompleted",
      "outputs": [],
      "stateMutability": "nonpayable",
      "type": "function"
    },
    {
      "inputs": [
        {
          "internalType": "uint256",
          "name": "_projectId",
          "type": "uint256"
        }
      ],
      "name": "releaseFunds",
      "outputs": [],
      "stateMutability": "nonpayable",
      "type": "function"
    },
    {
      "inputs": [
        {
          "internalType": "address",
          "name": "_freelancer",
          "type": "address"
        }
      ],
      "name": "getFreelancerReputation",
      "outputs": [
        {
          "internalType": "uint256",
          "name": "",
          "type": "uint256"
        }
      ],
      "stateMutability": "view",
      "type": "function"
    },
    {
      "inputs": [],
      "name": "getFreelancers",
      "outputs": [
        {
          "internalType": "address[]",
          "name": "",
          "type": "address[]"
        }
      ],
      "stateMutability": "view",
      "type": "function"
    }
  ],
  "bytecode": "0x608060405234801561001057600080fd5b50611c1c806100206000396000f3fe6080604052600436106100a75760003560e01c80636bd06204116100645780636bd06204146101dc5780636e2ec4dc14610205578063720413d11461022e578063794d556014610257578063b5bb59c014610294578063c7fdb186146102bf576100a7565b806304199ee7146100ac578063107046bd146100e957806321bd66931461012e57806336fbad261461016c5780633b76594d146101975780634d68282f146101b3575b600080fd5b3480156100b857600080fd5b506100d360048036038101906100ce91906111ac565b6102fc565b6040516100e091906117c9565b60405180910390f35b3480156100f557600080fd5b50610110600480360381019061010b9190611241565b610348565b6040516101259998979695949392919061186e565b60405180910390f35b34801561013a57600080fd5b50610155600480360381019061015091906111ac565b610500565b60405161016392919061165e565b60405180910390f35b34801561017857600080fd5b50610181610544565b60405161018e91906117c9565b60405180910390f35b6101b160048036038101906101ac9190611241565b61054a565b005b3480156101bf57600080fd5b506101da60048036038101906101d59190611241565b610698565b005b3480156101e857600080fd5b5061020360048036038101906101fe91906111d5565b610968565b005b34801561021157600080fd5b5061022c6004803603810190610227919061126a565b610b77565b005b34801561023a57600080fd5b5061025560048036038101906102509190611241565b610cd4565b005b34801561026357600080fd5b5061027e60048036038101906102799190611241565b610dee565b60405161028b91906117c9565b60405180910390f35b3480156102a057600080fd5b506102a9610e06565b6040516102b69190611687565b60405180910390f35b3480156102cb57600080fd5b506102e660048036038101906102e1919061126a565b611029565b6040516102f39190611643565b60405180910390f35b6000600160008373ffffffffffffffffffffffffffffffffffffffff1673ffffffffffffffffffffffffffffffffffffffff168152602001908152602001600020600101549050919050565b600060205280600052604060002060009150905080600001549080600101805461037190611a9f565b80601f016020809104026020016040519081016040528092919081815260200182805461039d90611a9f565b80156103ea5780601f106103bf576101008083540402835291602001916103ea565b820191906000526020600020905b8154815290600101906020018083116103cd57829003601f168201915b5050505050908060020180546103ff90611a9f565b80601f016020809104026020016040519081016040528092919081815260200182805461042b90611a9f565b80156104785780601f1061044d57610100808354040283529160200191610478565b820191906000526020600020905b81548152906001019060200180831161045b57829003601f168201915b5050505050908060030160009054906101000a900473ffffffffffffffffffffffffffffffffffffffff16908060040160009054906101000a900473ffffffffffffffffffffffffffffffffffffffff16908060050154908060060160009054906101000a900460ff16908060060160019054906101000a900460ff16908060070154905089565b60016020528060005260406000206000915090508060000160009054906101000a900473ffffffffffffffffffffffffffffffffffffffff16908060010154905082565b60035481565b60008082815260200190815260200160002060030160009054906101000a900473ffffffffffffffffffffffffffffffffffffffff1673ffffffffffffffffffffffffffffffffffffffff163373ffffffffffffffffffffffffffffffffffffffff16146105ed576040517f08c379a00000000000000000000000000000000000000000000000000000000081526004016105e490611789565b60405180910390fd5b60003411610630576040517f08c379a000000000000000000000000000000000000000000000000000000000815260040161062790611729565b60405180910390fd5b3460046000838152602001908152602001600020600082825461065391906119bf565b925050819055507fe030e47e27825a2ad1b19e4cf2e70bfbfb3124af275c7727a82b114ba7b29a8581333460405161068d939291906117e4565b60405180910390a150565b600080600083815260200190815260200160002090508060030160009054906101000a900473ffffffffffffffffffffffffffffffffffffffff1673ffffffffffffffffffffffffffffffffffffffff163373ffffffffffffffffffffffffffffffffffffffff1614610740576040517f08c379a0000000000000000000000000000000000000000000000000000000008152600401610737906117a9565b60405180910390fd5b8060060160009054906101000a900460ff16610791576040517f08c379a000000000000000000000000000000000000000000000000000000000815260040161078890611769565b60405180910390fd5b600073ffffffffffffffffffffffffffffffffffffffff168160040160009054906101000a900473ffffffffffffffffffffffffffffffffffffffff1673ffffffffffffffffffffffffffffffffffffffff161415610825576040517f08c379a000000000000000000000000000000000000000000000000000000000815260040161081c90611709565b60405180910390fd5b60006004600084815260200190815260200160002054905060008111610880576040517f08c379a0000000000000000000000000000000000000000000000000000000008152600401610877906116c9565b60405180910390fd5b600060046000858152602001908152602001600020819055508160040160009054906101000a900473ffffffffffffffffffffffffffffffffffffffff1673ffffffffffffffffffffffffffffffffffffffff166108fc829081150290604051600060405180830381858888f19350505050158015610903573d6000803e3d6000fd5b507f6e3c6096795c8298a218b2cfb8bde42726ff7c9a3d27b4d3ba41ab7f74feb5fb838360040160009054906101000a900473ffffffffffffffffffffffffffffffffffffffff168360405161095b939291906117e4565b60405180910390a1505050565b6003600081548092919061097b90611ad1565b919050555060405180610120016040528060035481526020018381526020018281526020013373ffffffffffffffffffffffffffffffffffffffff168152602001600073ffffffffffffffffffffffffffffffffffffffff16815260200160008152602001600015158152602001600015158152602001428152506000806003548152602001908152602001600020600082015181600001556020820151816001019080519060200190610a30929190611077565b506040820151816002019080519060200190610a4d929190611077565b5060608201518160030160006101000a81548173ffffffffffffffffffffffffffffffffffffffff021916908373ffffffffffffffffffffffffffffffffffffffff16021790555060808201518160040160006101000a81548173ffffffffffffffffffffffffffffffffffffffff021916908373ffffffffffffffffffffffffffffffffffffffff16021790555060a0820151816005015560c08201518160060160006101000a81548160ff02191690831515021790555060e08201518160060160016101000a81548160ff02191690831515021790555061010082015181600701559050507fedfd921b9d3f1e2d61625b6c7cbf436b8651ea7c5c83e688277f1600fdcb1f26600354838333604051610b6b949392919061181b565b60405180910390a15050565b60008060008481526020019081526020016000209050600073ffffffffffffffffffffffffffffffffffffffff168160040160009054906101000a900473ffffffffffffffffffffffffffffffffffffffff1673ffffffffffffffffffffffffffffffffffffffff1614610c20576040517f08c379a0000000000000000000000000000000000000000000000000000000008152600401610c1790611749565b60405180910390fd5b60026000848152602001908152602001600020339080600181540180825580915050600190039060005260206000200160009091909190916101000a81548173ffffffffffffffffffffffffffffffffffffffff021916908373ffffffffffffffffffffffffffffffffffffffff1602179055507f050735b04e4d0bf45ad597f4500f17ba72e51b05b0fc1bad63807ab65ca812ab833384604051610cc7939291906117e4565b60405180910390a1505050565b600080600083815260200190815260200160002090508060030160009054906101000a900473ffffffffffffffffffffffffffffffffffffffff1673ffffffffffffffffffffffffffffffffffffffff163373ffffffffffffffffffffffffffffffffffffffff1614610d7c576040517f08c379a0000000000000000000000000000000000000000000000000000000008152600401610d73906116e9565b60405180910390fd5b8060060160019054906101000a900460ff16610dcd576040517f08c379a0000000000000000000000000000000000000000000000000000000008152600401610dc4906116a9565b60405180910390fd5b60018160060160006101000a81548160ff0219169083151502179055505050565b60046020528060005260406000206000915090505481565b6060600060035467ffffffffffffffff811115610e4c577f4e487b7100000000000000000000000000000000000000000000000000000000600052604160045260246000fd5b604051908082528060200260200182016040528015610e7a5781602001602082028036833780820191505090505b509050600080600190505b600354811161102057600060026000838152602001908152602001600020805480602002602001604051908101604052809291908181526020018280548015610f2357602002820191906000526020600020905b8160009054906101000a900473ffffffffffffffffffffffffffffffffffffffff1673ffffffffffffffffffffffffffffffffffffffff1681526020019060010190808311610ed9575b5050505050905060005b815181101561100b57818181518110610f6f577f4e487b7100000000000000000000000000000000000000000000000000000000600052603260045260246000fd5b6020026020010151858581518110610fb0577f4e487b7100000000000000000000000000000000000000000000000000000000600052603260045260246000fd5b602002602001019073ffffffffffffffffffffffffffffffffffffffff16908173ffffffffffffffffffffffffffffffffffffffff16815250508380610ff590611ad1565b945050808061100390611ad1565b915050610f2d565b5050808061101890611ad1565b915050610e85565b50819250505090565b6002602052816000526040600020818154811061104557600080fd5b906000526020600020016000915091509054906101000a900473ffffffffffffffffffffffffffffffffffffffff1681565b82805461108390611a9f565b90600052602060002090601f0160209004810192826110a557600085556110ec565b82601f106110be57805160ff19168380011785556110ec565b828001600101855582156110ec579182015b828111156110eb5782518255916020019190600101906110d0565b5b5090506110f991906110fd565b5090565b5b808211156111165760008160009055506001016110fe565b5090565b600061112d6111288461193a565b611909565b90508281526020810184848401111561114557600080fd5b611150848285611a5d565b509392505050565b60008135905061116781611bb8565b92915050565b600082601f83011261117e57600080fd5b813561118e84826020860161111a565b91505092915050565b6000813590506111a681611bcf565b92915050565b6000602082840312156111be57600080fd5b60006111cc84828501611158565b91505092915050565b600080604083850312156111e857600080fd5b600083013567ffffffffffffffff81111561120257600080fd5b61120e8582860161116d565b925050602083013567ffffffffffffffff81111561122b57600080fd5b6112378582860161116d565b9150509250929050565b60006020828403121561125357600080fd5b600061126184828501611197565b91505092915050565b6000806040838503121561127d57600080fd5b600061128b85828601611197565b925050602061129c85828601611197565b9150509250929050565b60006112b283836112be565b60208301905092915050565b6112c781611a15565b82525050565b6112d681611a15565b82525050565b60006112e78261197a565b6112f1818561199d565b93506112fc8361196a565b8060005b8381101561132d57815161131488826112a6565b975061131f83611990565b925050600181019050611300565b5085935050505092915050565b61134381611a27565b82525050565b600061135482611985565b61135e81856119ae565b935061136e818560208601611a6c565b61137781611ba7565b840191505092915050565b600061138f6015836119ae565b91507f50726f6a656374206973206e6f742066756e64656400000000000000000000006000830152602082019050919050565b60006113cf6023836119ae565b91507f4e6f2066756e647320617661696c61626c6520666f7220746869732070726f6a60008301527f65637400000000000000000000000000000000000000000000000000000000006020830152604082019050919050565b60006114356023836119ae565b91507f4f6e6c7920656d706c6f7965722063616e206d61726b20617320636f6d706c6560008301527f74656400000000000000000000000000000000000000000000000000000000006020830152604082019050919050565b600061149b601b836119ae565b91507f467265656c616e636572206d7573742062652061737369676e656400000000006000830152602082019050919050565b60006114db601f836119ae565b91507f46756e6473206d7573742062652067726561746572207468616e207a65726f006000830152602082019050919050565b600061151b6020836119ae565b91507f50726f6a65637420616c726561647920686173206120667265656c616e6365726000830152602082019050919050565b600061155b6023836119ae565b91507f50726f6a656374206d757374206265206d61726b656420617320636f6d706c6560008301527f74656400000000000000000000000000000000000000000000000000000000006020830152604082019050919050565b60006115c16019836119ae565b91507f4f6e6c7920656d706c6f7965722063616e206465706f736974000000000000006000830152602082019050919050565b6000611601601f836119ae565b91507f4f6e6c7920656d706c6f7965722063616e2072656c656173652066756e6473006000830152602082019050919050565b61163d81611a53565b82525050565b600060208201905061165860008301846112cd565b92915050565b600060408201905061167360008301856112cd565b6116806020830184611634565b9392505050565b600060208201905081810360008301526116a181846112dc565b905092915050565b600060208201905081810360008301526116c281611382565b9050919050565b600060208201905081810360008301526116e2816113c2565b9050919050565b6000602082019050818103600083015261170281611428565b9050919050565b600060208201905081810360008301526117228161148e565b9050919050565b60006020820190508181036000830152611742816114ce565b9050919050565b600060208201905081810360008301526117628161150e565b9050919050565b600060208201905081810360008301526117828161154e565b9050919050565b600060208201905081810360008301526117a2816115b4565b9050919050565b600060208201905081810360008301526117c2816115f4565b9050919050565b60006020820190506117de6000830184611634565b92915050565b60006060820190506117f96000830186611634565b61180660208301856112cd565b6118136040830184611634565b949350505050565b60006080820190506118306000830187611634565b81810360208301526118428186611349565b905081810360408301526118568185611349565b905061186560608301846112cd565b95945050505050565b600061012082019050611884600083018c611634565b8181036020830152611896818b611349565b905081810360408301526118aa818a611349565b90506118b960608301896112cd565b6118c660808301886112cd565b6118d360a0830187611634565b6118e060c083018661133a565b6118ed60e083018561133a565b6118fb610100830184611634565b9a9950505050505050505050565b6000604051905081810181811067ffffffffffffffff821117156119305761192f611b78565b5b8060405250919050565b600067ffffffffffffffff82111561195557611954611b78565b5b601f19601f8301169050602081019050919050565b6000819050602082019050919050565b600081519050919050565b600081519050919050565b6000602082019050919050565b600082825260208201905092915050565b600082825260208201905092915050565b60006119ca82611a53565b91506119d583611a53565b9250827fffffffffffffffffffffffffffffffffffffffffffffffffffffffffffffffff03821115611a0a57611a09611b1a565b5b828201905092915050565b6000611a2082611a33565b9050919050565b60008115159050919050565b600073ffffffffffffffffffffffffffffffffffffffff82169050919050565b6000819050919050565b82818337600083830152505050565b60005b83811015611a8a578082015181840152602081019050611a6f565b83811115611a99576000848401525b50505050565b60006002820490506001821680611ab757607f821691505b60208210811415611acb57611aca611b49565b5b50919050565b6000611adc82611a53565b91507fffffffffffffffffffffffffffffffffffffffffffffffffffffffffffffffff821415611b0f57611b0e611b1a565b5b600182019050919050565b7f4e487b7100000000000000000000000000000000000000000000000000000000600052601160045260246000fd5b7f4e487b7100000000000000000000000000000000000000000000000000000000600052602260045260246000fd5b7f4e487b7100000000000000000000000000000000000000000000000000000000600052604160045260246000fd5b6000601f19601f8301169050919050565b611bc181611a15565b8114611bcc57600080fd5b50565b611bd881611a53565b8114611be357600080fd5b5056fea264697066735822122010177ec04459f957ffb9265d0017196f6ce9b45fab3c6b5834bbf4b2e375feb164736f6c63430008000033",
  "immutableReferences": {},
  "source": "pragma solidity ^0.8.0;\r\n\r\ncontract HireChain {\r\n    // Role enum\r\n    enum Role { Employer, Freelancer }\r\n\r\n    struct Project {\r\n        uint256 id;\r\n        string name;\r\n        string description;\r\n        address employer;\r\n        address freelancer;\r\n        uint256 bidAmount;\r\n        bool completed;\r\n        bool isFunded;\r\n        uint256 timestamp;\r\n    }\r\n\r\n    struct Freelancer {\r\n        address freelancerAddress;\r\n        uint256 reputation;\r\n    }\r\n\r\n    mapping(uint256 => Project) public projects;\r\n    mapping(address => Freelancer) public freelancers;\r\n    mapping(uint256 => address[]) public projectFreelancers;\r\n    uint256 public projectCount;\r\n\r\n    // Add to your existing contract\r\n    mapping(uint256 => uint256) public projectFunds; // Track funds for each project\r\n\r\n    event FundsDeposited(uint256 projectId, address employer, uint256 bidAmount);\r\n    event FundsReleased(uint256 projectId, address freelancer, uint256 bidAmount);\r\n\r\n    event ProjectCreated(uint256 id, string name, string description, address employer);\r\n    event ProjectCompleted(uint256 id, address employer, address freelancer, uint256 bidAmount);\r\n    event ProjectApplied(uint256 id, address freelancer, uint256 bidAmount);\r\n    \r\n    \r\n\r\n    function createProject(string memory _name, string memory _description) public {\r\n        projectCount++;\r\n        // Assign all 9 arguments as required by the Project struct\r\n        projects[projectCount] = Project(\r\n            projectCount,              // id\r\n            _name,                     // name\r\n            _description,              // description\r\n            msg.sender,                // employer\r\n            address(0),                // freelancer (initially set to address(0))\r\n            0,                         // bidAmount\r\n            false,                     // completed (default to false)\r\n            false,                     // isFunded (default to false)\r\n            block.timestamp            // timestamp\r\n        );\r\n        emit ProjectCreated(projectCount, _name, _description, msg.sender);\r\n    }\r\n\r\n    function depositFunds(uint256 _projectId) public payable {\r\n        require(msg.sender == projects[_projectId].employer, \"Only employer can deposit\");\r\n        require(msg.value > 0, \"Funds must be greater than zero\");\r\n\r\n        projectFunds[_projectId] += msg.value;\r\n        emit FundsDeposited(_projectId, msg.sender, msg.value);\r\n    }\r\n\r\n    function applyForProject(uint256 _projectId, uint256 _bidAmount) public {\r\n        Project storage project = projects[_projectId];\r\n        require(project.freelancer == address(0), \"Project already has a freelancer\");\r\n        projectFreelancers[_projectId].push(msg.sender);\r\n        emit ProjectApplied(_projectId, msg.sender, _bidAmount);\r\n    }\r\n\r\n    function markProjectAsCompleted(uint256 _projectId) public {\r\n        Project storage project = projects[_projectId];\r\n        require(msg.sender == project.employer, \"Only employer can mark as completed\");\r\n        require(project.isFunded, \"Project is not funded\");\r\n        project.completed = true;\r\n    }\r\n\r\n    function releaseFunds(uint256 _projectId) public {\r\n        Project storage project = projects[_projectId];\r\n        require(msg.sender == project.employer, \"Only employer can release funds\");\r\n        require(project.completed, \"Project must be marked as completed\");\r\n        require(project.freelancer != address(0), \"Freelancer must be assigned\");\r\n\r\n        uint256 amount = projectFunds[_projectId];\r\n        require(amount > 0, \"No funds available for this project\");\r\n\r\n        projectFunds[_projectId] = 0;\r\n        payable(project.freelancer).transfer(amount);\r\n        emit FundsReleased(_projectId, project.freelancer, amount);\r\n    }\r\n\r\n    function getFreelancerReputation(address _freelancer) public view returns (uint256) {\r\n        return freelancers[_freelancer].reputation;\r\n    }\r\n\r\n    function getFreelancers() public view returns (address[] memory) {\r\n        address[] memory allFreelancers = new address[](projectCount);\r\n        uint256 index = 0;\r\n        for (uint256 i = 1; i <= projectCount; i++) {\r\n            address[] memory freelancersInProject = projectFreelancers[i];\r\n            for (uint256 j = 0; j < freelancersInProject.length; j++) {\r\n                allFreelancers[index] = freelancersInProject[j];\r\n                index++;\r\n            }\r\n        }\r\n        return allFreelancers;\r\n    }\r\n}\r\n",
  "sourcePath": "C:\\Users\\NAVJOTH RAI\\HC\\contracts\\HireChain.sol",
  "compiler": {
    "name": "solc",
    "version": "0.8.0+commit.c7dfd78e.Emscripten.clang"
  },
  "schemaVersion": "3.4.16",
  "updatedAt": "2024-12-23T04:35:14.385Z",
  "devdoc": {
    "kind": "dev",
    "methods": {},
    "version": 1
  },
  "userdoc": {
    "kind": "user",
    "methods": {},
    "version": 1
  }
}