{
  "contractName": "HireChain",
  "abi": [
    {
      "inputs": [
        {
          "internalType": "address",
          "name": "_reputationTokenAddress",
          "type": "address"
        }
      ],
      "stateMutability": "nonpayable",
      "type": "constructor"
    },
    {
      "anonymous": false,
      "inputs": [
        {
          "indexed": false,
          "internalType": "uint256",
          "name": "id",
          "type": "uint256"
        },
        {
          "indexed": false,
          "internalType": "address",
          "name": "freelancer",
          "type": "address"
        },
        {
          "indexed": false,
          "internalType": "uint256",
          "name": "proposedFee",
          "type": "uint256"
        }
      ],
      "name": "FreelancerAssigned",
      "type": "event"
    },
    {
      "anonymous": false,
      "inputs": [
        {
          "indexed": false,
          "internalType": "uint256",
          "name": "projectId",
          "type": "uint256"
        },
        {
          "indexed": false,
          "internalType": "address",
          "name": "freelancer",
          "type": "address"
        },
        {
          "indexed": false,
          "internalType": "uint256",
          "name": "amount",
          "type": "uint256"
        }
      ],
      "name": "FundsAutoReleased",
      "type": "event"
    },
    {
      "anonymous": false,
      "inputs": [
        {
          "indexed": false,
          "internalType": "uint256",
          "name": "id",
          "type": "uint256"
        },
        {
          "indexed": false,
          "internalType": "uint256",
          "name": "bidAmount",
          "type": "uint256"
        }
      ],
      "name": "FundsDeposited",
      "type": "event"
    },
    {
      "anonymous": false,
      "inputs": [
        {
          "indexed": false,
          "internalType": "uint256",
          "name": "id",
          "type": "uint256"
        },
        {
          "indexed": false,
          "internalType": "address",
          "name": "freelancer",
          "type": "address"
        },
        {
          "indexed": false,
          "internalType": "uint256",
          "name": "bidAmount",
          "type": "uint256"
        },
        {
          "indexed": false,
          "internalType": "bool",
          "name": "success",
          "type": "bool"
        }
      ],
      "name": "FundsReleased",
      "type": "event"
    },
    {
      "anonymous": false,
      "inputs": [
        {
          "indexed": false,
          "internalType": "uint256",
          "name": "projectId",
          "type": "uint256"
        },
        {
          "indexed": false,
          "internalType": "uint256",
          "name": "employerAmount",
          "type": "uint256"
        },
        {
          "indexed": false,
          "internalType": "uint256",
          "name": "freelancerAmount",
          "type": "uint256"
        }
      ],
      "name": "FundsSplit",
      "type": "event"
    },
    {
      "anonymous": false,
      "inputs": [
        {
          "indexed": false,
          "internalType": "uint256",
          "name": "id",
          "type": "uint256"
        },
        {
          "indexed": false,
          "internalType": "address",
          "name": "freelancer",
          "type": "address"
        },
        {
          "indexed": false,
          "internalType": "uint256",
          "name": "bidAmount",
          "type": "uint256"
        }
      ],
      "name": "ProjectApplied",
      "type": "event"
    },
    {
      "anonymous": false,
      "inputs": [
        {
          "indexed": false,
          "internalType": "uint256",
          "name": "projectId",
          "type": "uint256"
        },
        {
          "indexed": false,
          "internalType": "address",
          "name": "employer",
          "type": "address"
        }
      ],
      "name": "ProjectApproved",
      "type": "event"
    },
    {
      "anonymous": false,
      "inputs": [
        {
          "indexed": false,
          "internalType": "uint256",
          "name": "id",
          "type": "uint256"
        },
        {
          "indexed": false,
          "internalType": "address",
          "name": "employer",
          "type": "address"
        },
        {
          "indexed": false,
          "internalType": "address",
          "name": "freelancer",
          "type": "address"
        },
        {
          "indexed": false,
          "internalType": "uint256",
          "name": "bidAmount",
          "type": "uint256"
        }
      ],
      "name": "ProjectCompleted",
      "type": "event"
    },
    {
      "anonymous": false,
      "inputs": [
        {
          "indexed": false,
          "internalType": "uint256",
          "name": "id",
          "type": "uint256"
        },
        {
          "indexed": false,
          "internalType": "string",
          "name": "name",
          "type": "string"
        },
        {
          "indexed": false,
          "internalType": "string",
          "name": "description",
          "type": "string"
        },
        {
          "indexed": false,
          "internalType": "address",
          "name": "employer",
          "type": "address"
        }
      ],
      "name": "ProjectCreated",
      "type": "event"
    },
    {
      "anonymous": false,
      "inputs": [
        {
          "indexed": false,
          "internalType": "uint256",
          "name": "projectId",
          "type": "uint256"
        },
        {
          "indexed": false,
          "internalType": "address",
          "name": "employer",
          "type": "address"
        },
        {
          "indexed": false,
          "internalType": "uint256",
          "name": "timestamp",
          "type": "uint256"
        }
      ],
      "name": "ProjectDisputed",
      "type": "event"
    },
    {
      "anonymous": false,
      "inputs": [
        {
          "indexed": false,
          "internalType": "uint256",
          "name": "projectId",
          "type": "uint256"
        },
        {
          "indexed": false,
          "internalType": "address",
          "name": "freelancer",
          "type": "address"
        },
        {
          "indexed": false,
          "internalType": "uint256",
          "name": "timestamp",
          "type": "uint256"
        }
      ],
      "name": "ProjectMarkedReadyForReview",
      "type": "event"
    },
    {
      "anonymous": false,
      "inputs": [
        {
          "indexed": false,
          "internalType": "uint256",
          "name": "projectId",
          "type": "uint256"
        },
        {
          "indexed": false,
          "internalType": "address",
          "name": "freelancer",
          "type": "address"
        },
        {
          "indexed": false,
          "internalType": "uint256",
          "name": "timestamp",
          "type": "uint256"
        }
      ],
      "name": "ProjectResubmitted",
      "type": "event"
    },
    {
      "anonymous": false,
      "inputs": [
        {
          "indexed": false,
          "internalType": "address",
          "name": "freelancer",
          "type": "address"
        },
        {
          "indexed": false,
          "internalType": "uint256",
          "name": "amount",
          "type": "uint256"
        }
      ],
      "name": "ReputationAwarded",
      "type": "event"
    },
    {
      "anonymous": false,
      "inputs": [
        {
          "indexed": false,
          "internalType": "uint256",
          "name": "id",
          "type": "uint256"
        },
        {
          "indexed": false,
          "internalType": "string",
          "name": "reason",
          "type": "string"
        }
      ],
      "name": "TransferFailed",
      "type": "event"
    },
    {
      "inputs": [],
      "name": "EMPLOYER_REDISPUTE_DEADLINE",
      "outputs": [
        {
          "internalType": "uint256",
          "name": "",
          "type": "uint256"
        }
      ],
      "stateMutability": "view",
      "type": "function",
      "constant": true
    },
    {
      "inputs": [],
      "name": "EMPLOYER_REVIEW_DEADLINE",
      "outputs": [
        {
          "internalType": "uint256",
          "name": "",
          "type": "uint256"
        }
      ],
      "stateMutability": "view",
      "type": "function",
      "constant": true
    },
    {
      "inputs": [],
      "name": "FREELANCER_RESUBMIT_DEADLINE",
      "outputs": [
        {
          "internalType": "uint256",
          "name": "",
          "type": "uint256"
        }
      ],
      "stateMutability": "view",
      "type": "function",
      "constant": true
    },
    {
      "inputs": [
        {
          "internalType": "uint256",
          "name": "",
          "type": "uint256"
        },
        {
          "internalType": "uint256",
          "name": "",
          "type": "uint256"
        }
      ],
      "name": "feeProposals",
      "outputs": [
        {
          "internalType": "address",
          "name": "freelancer",
          "type": "address"
        },
        {
          "internalType": "uint256",
          "name": "proposedFee",
          "type": "uint256"
        }
      ],
      "stateMutability": "view",
      "type": "function",
      "constant": true
    },
    {
      "inputs": [
        {
          "internalType": "address",
          "name": "",
          "type": "address"
        }
      ],
      "name": "freelancers",
      "outputs": [
        {
          "internalType": "address",
          "name": "freelancerAddress",
          "type": "address"
        },
        {
          "internalType": "uint256",
          "name": "reputation",
          "type": "uint256"
        }
      ],
      "stateMutability": "view",
      "type": "function",
      "constant": true
    },
    {
      "inputs": [],
      "name": "projectCount",
      "outputs": [
        {
          "internalType": "uint256",
          "name": "",
          "type": "uint256"
        }
      ],
      "stateMutability": "view",
      "type": "function",
      "constant": true
    },
    {
      "inputs": [
        {
          "internalType": "uint256",
          "name": "",
          "type": "uint256"
        }
      ],
      "name": "projects",
      "outputs": [
        {
          "internalType": "uint256",
          "name": "id",
          "type": "uint256"
        },
        {
          "internalType": "string",
          "name": "name",
          "type": "string"
        },
        {
          "internalType": "string",
          "name": "description",
          "type": "string"
        },
        {
          "internalType": "address",
          "name": "employer",
          "type": "address"
        },
        {
          "internalType": "address",
          "name": "freelancer",
          "type": "address"
        },
        {
          "internalType": "uint256",
          "name": "bidAmount",
          "type": "uint256"
        },
        {
          "internalType": "bool",
          "name": "completed",
          "type": "bool"
        },
        {
          "internalType": "bool",
          "name": "isPaid",
          "type": "bool"
        },
        {
          "internalType": "string",
          "name": "employerFileCID",
          "type": "string"
        }
      ],
      "stateMutability": "view",
      "type": "function",
      "constant": true
    },
    {
      "inputs": [],
      "name": "reputationToken",
      "outputs": [
        {
          "internalType": "contract IReputationToken",
          "name": "",
          "type": "address"
        }
      ],
      "stateMutability": "view",
      "type": "function",
      "constant": true
    },
    {
      "inputs": [
        {
          "internalType": "uint256",
          "name": "",
          "type": "uint256"
        }
      ],
      "name": "reviewStatuses",
      "outputs": [
        {
          "internalType": "enum HireChain.ProjectState",
          "name": "state",
          "type": "uint8"
        },
        {
          "internalType": "uint256",
          "name": "readyForReviewTimestamp",
          "type": "uint256"
        },
        {
          "internalType": "uint256",
          "name": "disputeTimestamp",
          "type": "uint256"
        },
        {
          "internalType": "bool",
          "name": "employerApproved",
          "type": "bool"
        },
        {
          "internalType": "string",
          "name": "freelancerFileCID",
          "type": "string"
        }
      ],
      "stateMutability": "view",
      "type": "function",
      "constant": true
    },
    {
      "stateMutability": "payable",
      "type": "receive",
      "payable": true
    },
    {
      "inputs": [
        {
          "internalType": "uint256",
          "name": "_projectId",
          "type": "uint256"
        }
      ],
      "name": "depositFunds",
      "outputs": [],
      "stateMutability": "payable",
      "type": "function",
      "payable": true
    },
    {
      "inputs": [
        {
          "internalType": "uint256",
          "name": "_projectId",
          "type": "uint256"
        },
        {
          "internalType": "uint256",
          "name": "_bidAmount",
          "type": "uint256"
        }
      ],
      "name": "applyForProject",
      "outputs": [],
      "stateMutability": "nonpayable",
      "type": "function"
    },
    {
      "inputs": [
        {
          "internalType": "uint256",
          "name": "_projectId",
          "type": "uint256"
        }
      ],
      "name": "assignFreelancer",
      "outputs": [],
      "stateMutability": "nonpayable",
      "type": "function"
    },
    {
      "inputs": [
        {
          "internalType": "uint256",
          "name": "_projectId",
          "type": "uint256"
        }
      ],
      "name": "completeProject",
      "outputs": [],
      "stateMutability": "nonpayable",
      "type": "function"
    },
    {
      "inputs": [
        {
          "internalType": "uint256",
          "name": "_projectId",
          "type": "uint256"
        }
      ],
      "name": "releaseFunds",
      "outputs": [],
      "stateMutability": "nonpayable",
      "type": "function"
    },
    {
      "inputs": [
        {
          "internalType": "address",
          "name": "_freelancer",
          "type": "address"
        }
      ],
      "name": "getFreelancerReputation",
      "outputs": [
        {
          "internalType": "uint256",
          "name": "",
          "type": "uint256"
        }
      ],
      "stateMutability": "view",
      "type": "function",
      "constant": true
    },
    {
      "inputs": [],
      "name": "getFreelancers",
      "outputs": [
        {
          "internalType": "address[]",
          "name": "",
          "type": "address[]"
        }
      ],
      "stateMutability": "view",
      "type": "function",
      "constant": true
    },
    {
      "inputs": [
        {
          "internalType": "string",
          "name": "_name",
          "type": "string"
        },
        {
          "internalType": "string",
          "name": "_description",
          "type": "string"
        }
      ],
      "name": "createProject",
      "outputs": [],
      "stateMutability": "nonpayable",
      "type": "function"
    },
    {
      "inputs": [
        {
          "internalType": "string",
          "name": "_name",
          "type": "string"
        },
        {
          "internalType": "string",
          "name": "_description",
          "type": "string"
        },
        {
          "internalType": "string",
          "name": "_employerFileCID",
          "type": "string"
        }
      ],
      "name": "createProject",
      "outputs": [],
      "stateMutability": "nonpayable",
      "type": "function"
    },
    {
      "inputs": [
        {
          "internalType": "uint256",
          "name": "_projectId",
          "type": "uint256"
        }
      ],
      "name": "approveProject",
      "outputs": [],
      "stateMutability": "nonpayable",
      "type": "function"
    },
    {
      "inputs": [
        {
          "internalType": "uint256",
          "name": "_projectId",
          "type": "uint256"
        }
      ],
      "name": "disputeProject",
      "outputs": [],
      "stateMutability": "nonpayable",
      "type": "function"
    },
    {
      "inputs": [
        {
          "internalType": "uint256",
          "name": "_projectId",
          "type": "uint256"
        }
      ],
      "name": "checkDeadlines",
      "outputs": [],
      "stateMutability": "nonpayable",
      "type": "function"
    },
    {
      "inputs": [
        {
          "internalType": "uint256",
          "name": "_projectId",
          "type": "uint256"
        },
        {
          "internalType": "string",
          "name": "_freelancerFileCID",
          "type": "string"
        }
      ],
      "name": "markReadyForReview",
      "outputs": [],
      "stateMutability": "nonpayable",
      "type": "function"
    },
    {
      "inputs": [
        {
          "internalType": "uint256",
          "name": "_projectId",
          "type": "uint256"
        }
      ],
      "name": "markReadyForReview",
      "outputs": [],
      "stateMutability": "nonpayable",
      "type": "function"
    },
    {
      "inputs": [
        {
          "internalType": "uint256",
          "name": "_projectId",
          "type": "uint256"
        },
        {
          "internalType": "string",
          "name": "_freelancerFileCID",
          "type": "string"
        }
      ],
      "name": "resubmitProject",
      "outputs": [],
      "stateMutability": "nonpayable",
      "type": "function"
    },
    {
      "inputs": [
        {
          "internalType": "uint256",
          "name": "_projectId",
          "type": "uint256"
        }
      ],
      "name": "resubmitProject",
      "outputs": [],
      "stateMutability": "nonpayable",
      "type": "function"
    }
  ],
  "bytecode": "0x60806040523480156200001157600080fd5b50604051620031643803806200316483398101604081905262000034916200005a565b600080546001600160a01b0319166001600160a01b03929092169190911790556200008a565b6000602082840312156200006c578081fd5b81516001600160a01b038116811462000083578182fd5b9392505050565b6130ca806200009a6000396000f3fe60806040526004361061016a5760003560e01c8063604e2a04116100d1578063af1cc8371161008a578063cf7be6ec11610064578063cf7be6ec14610418578063d8a10bfb14610438578063ec201e8414610458578063fc69d8361461047857610171565b8063af1cc837146103c1578063b5bb59c0146103d6578063bb3c6bc4146103f857610171565b8063604e2a041461031b5780636bd062041461034c5780636e2ec4dc1461036c5780637e2147541461038c5780638307b66b146103a1578063ae9b3e4e146103c157610171565b8063275bbe9b11610123578063275bbe9b1461027157806336fbad26146102935780633b76594d146102a85780634d68282f146102bb57806358101b8f146102db5780635a297de0146102fb57610171565b806304199ee7146101765780630ec87a95146101ac578063107046bd146101ce57806321bd6693146102035780632245f1521461023157806324112d5b1461025157610171565b3661017157005b600080fd5b34801561018257600080fd5b506101966101913660046123fe565b610498565b6040516101a39190612d40565b60405180910390f35b3480156101b857600080fd5b506101cc6101c7366004612531565b61051f565b005b3480156101da57600080fd5b506101ee6101e9366004612531565b6107c1565b6040516101a399989796959493929190612e0f565b34801561020f57600080fd5b5061022361021e3660046123fe565b6109b8565b6040516101a392919061261f565b34801561023d57600080fd5b506101cc61024c366004612531565b6109dd565b34801561025d57600080fd5b506101cc61026c366004612531565b610c54565b34801561027d57600080fd5b50610286610d7a565b6040516101a3919061260b565b34801561029f57600080fd5b50610196610d89565b6101cc6102b6366004612531565b610d8f565b3480156102c757600080fd5b506101cc6102d6366004612531565b610e4d565b3480156102e757600080fd5b506102236102f636600461259c565b611011565b34801561030757600080fd5b506101cc610316366004612561565b611057565b34801561032757600080fd5b5061033b610336366004612531565b61119c565b6040516101a3959493929190612685565b34801561035857600080fd5b506101cc61036736600461244c565b61125c565b34801561037857600080fd5b506101cc61038736600461259c565b6113d1565b34801561039857600080fd5b50610196611517565b3480156103ad57600080fd5b506101cc6103bc366004612561565b61151e565b3480156103cd57600080fd5b50610196611656565b3480156103e257600080fd5b506103eb61165d565b6040516101a39190612638565b34801561040457600080fd5b506101cc610413366004612531565b6117eb565b34801561042457600080fd5b506101cc6104333660046124ad565b61190d565b34801561044457600080fd5b506101cc610453366004612531565b611a7a565b34801561046457600080fd5b506101cc610473366004612531565b611b9d565b34801561048457600080fd5b506101cc610493366004612531565b611e8a565b600080546040516370a0823160e01b81526001600160a01b03909116906370a08231906104c990859060040161260b565b60206040518083038186803b1580156104e157600080fd5b505afa1580156104f5573d6000803e3d6000fd5b505050506040513d601f19601f820116820180604052508101906105199190612549565b92915050565b600081815260016020908152604080832060059092529091206006820154610100900460ff161561056b5760405162461bcd60e51b815260040161056290612d10565b60405180910390fd5b6000815460ff16600481111561059157634e487b7160e01b600052602160045260246000fd5b141580156105c357506004815460ff1660048111156105c057634e487b7160e01b600052602160045260246000fd5b14155b6105df5760405162461bcd60e51b815260040161056290612ad8565b6001815460ff16600481111561060557634e487b7160e01b600052602160045260246000fd5b148015610623575062093a8081600101546106209190612fba565b42115b156106ac57600682018054600160ff199182168117909255825460049284929190911690835b021790555061065783611fcf565b600482015460058301546040517fb3eac2645738638caada3bff2a4104bfb7812da7cef141ddf90de34fd6a01b629261069d9287926001600160a01b0390921691612d85565b60405180910390a150506107be565b6002815460ff1660048111156106d257634e487b7160e01b600052602160045260246000fd5b1480156106f057506203f48081600201546106ed9190612fba565b42115b15610705576106fe836120ec565b50506107be565b6003815460ff16600481111561072b57634e487b7160e01b600052602160045260246000fd5b14801561074957506203f48081600101546107469190612fba565b42115b1561077357600682018054600160ff19918216811790925582546004928492919091169083610649565b6002815460ff16600481111561079957634e487b7160e01b600052602160045260246000fd5b1480156107ad575080600101548160020154115b156107bb576106fe836120ec565b50505b50565b6001602081905260009182526040909120805491810180546107e290612ff2565b80601f016020809104026020016040519081016040528092919081815260200182805461080e90612ff2565b801561085b5780601f106108305761010080835404028352916020019161085b565b820191906000526020600020905b81548152906001019060200180831161083e57829003601f168201915b50505050509080600201805461087090612ff2565b80601f016020809104026020016040519081016040528092919081815260200182805461089c90612ff2565b80156108e95780601f106108be576101008083540402835291602001916108e9565b820191906000526020600020905b8154815290600101906020018083116108cc57829003601f168201915b50505050600383015460048401546005850154600686015460078701805496976001600160a01b0395861697959094169550919360ff8083169461010090930416929061093590612ff2565b80601f016020809104026020016040519081016040528092919081815260200182805461096190612ff2565b80156109ae5780601f10610983576101008083540402835291602001916109ae565b820191906000526020600020905b81548152906001019060200180831161099157829003601f168201915b5050505050905089565b600260205260009081526040902080546001909101546001600160a01b039091169082565b600081815260016020526040902060038101546001600160a01b03163314610a175760405162461bcd60e51b8152600401610562906127ae565b60048101546001600160a01b0316610a415760405162461bcd60e51b8152600401610562906127f0565b6006810154610100900460ff1615610a6b5760405162461bcd60e51b815260040161056290612d10565b60068101805460ff1916600117905560005460048083015460405163a9059cbb60e01b815268056bc75e2d63100000936001600160a01b039081169363a9059cbb93610abc9392169186910161261f565b602060405180830381600087803b158015610ad657600080fd5b505af1158015610aea573d6000803e3d6000fd5b505050506040513d601f19601f82011682018060405250810190610b0e919061242c565b506000546004808401546040516370a0823160e01b81526001600160a01b03938416936370a0823193610b4593909116910161260b565b60206040518083038186803b158015610b5d57600080fd5b505afa158015610b71573d6000803e3d6000fd5b505050506040513d601f19601f82011682018060405250810190610b959190612549565b6004830180546001600160a01b03908116600090815260026020526040908190206001019390935560038501549154600586015493517fa4b11fcfec9227f7eeba07f17d16eb5091f2ea60c117dd7a3a5e6b48242f1cbe94610bfe948994908116931691612d60565b60405180910390a160048201546040517f99a3d10b89b07674fcd46bd1678cb120c3c0e2bdd33ab6c1ed9907208907a32191610c47916001600160a01b0390911690849061261f565b60405180910390a1505050565b6000818152600160209081526040808320600590925290912060038201546001600160a01b03163314610c995760405162461bcd60e51b815260040161056290612ca2565b6001815460ff166004811115610cbf57634e487b7160e01b600052602160045260246000fd5b1480610cee57506003815460ff166004811115610cec57634e487b7160e01b600052602160045260246000fd5b145b610d0a5760405162461bcd60e51b81526004016105629061297e565b6006820154610100900460ff1615610d345760405162461bcd60e51b815260040161056290612d10565b805460ff191660029081178255429082018190556040517f09eb86328abbbb332b0f2385548c2c581e0c4f61034bad4d4f77c49b82853d3491610c479186913391612d85565b6000546001600160a01b031681565b60045481565b600081815260016020526040902060038101546001600160a01b03163314610dc95760405162461bcd60e51b815260040161056290612aa1565b6000816005015411610ded5760405162461bcd60e51b815260040161056290612710565b80600501543414610e105760405162461bcd60e51b815260040161056290612bef565b7f26679fa1f3868c950e9362f1106cf73f3318de0280e0411a3c68e4b463eadd4f8234604051610e41929190612f96565b60405180910390a15050565b600081815260016020526040902060038101546001600160a01b03163314610e875760405162461bcd60e51b815260040161056290612cd9565b600681015460ff16610eab5760405162461bcd60e51b815260040161056290612a21565b6006810154610100900460ff1615610ed55760405162461bcd60e51b815260040161056290612d10565b8060050154471015610ef95760405162461bcd60e51b815260040161056290612b76565b600481015460058201546040516000926001600160a01b03169161c35091610f2090612608565b600060405180830381858888f193505050503d8060008114610f5e576040519150601f19603f3d011682016040523d82523d6000602084013e610f63565b606091505b505090508015610fd45760068201805461ff001916610100179055600482015460058301546040517f3649876827f5d911fc0aa74f593cdc51500840915ec37032581ed010f08f5f0a92610fc79287926001600160a01b0390921691600190612da4565b60405180910390a16107bb565b60008051602061307583398151915283604051610ff19190612e90565b60405180910390a160405162461bcd60e51b815260040161056290612bad565b6003602052816000526040600020818154811061102d57600080fd5b6000918252602090912060029091020180546001909101546001600160a01b039091169250905082565b6000828152600160209081526040808320600590925290912060048201546001600160a01b0316331461109c5760405162461bcd60e51b8152600401610562906128b0565b60048201546001600160a01b03166110c65760405162461bcd60e51b8152600401610562906127f0565b6006820154610100900460ff16156110f05760405162461bcd60e51b815260040161056290612d10565b6000815460ff16600481111561111657634e487b7160e01b600052602160045260246000fd5b146111335760405162461bcd60e51b815260040161056290612b3f565b805460ff1916600190811782554290820155825161115a90600483019060208601906122e4565b507fcc1f37fb11ae585a69b11afeeddd809b93377adbb148e0e73fa151b40759afe784334260405161118e93929190612d85565b60405180910390a150505050565b6005602052600090815260409020805460018201546002830154600384015460048501805460ff958616969495939492909316926111d990612ff2565b80601f016020809104026020016040519081016040528092919081815260200182805461120590612ff2565b80156112525780601f1061122757610100808354040283529160200191611252565b820191906000526020600020905b81548152906001019060200180831161123557829003601f168201915b5050505050905085565b6004805490600061126c8361302d565b90915550506040805161012081018252600454808252602080830186815283850186905233606085015260006080850181905260a0850181905260c0850181905260e08501819052855180840187528181526101008601529283526001808352949092208351815591518051939492936112ed9385019291909101906122e4565b50604082015180516113099160028401916020909101906122e4565b5060608201516003820180546001600160a01b03199081166001600160a01b03938416179091556080840151600484018054909216921691909117905560a0820151600582015560c082015160068201805460e085015160ff199091169215159290921761ff001916610100921515830217905582015180516113969160078401916020909101906122e4565b509050507fedfd921b9d3f1e2d61625b6c7cbf436b8651ea7c5c83e688277f1600fdcb1f26600454838333604051610e419493929190612dca565b600082815260016020526040902060038101546001600160a01b03166114095760405162461bcd60e51b815260040161056290612b0f565b60048101546001600160a01b0316156114345760405162461bcd60e51b8152600401610562906129b5565b600083815260036020908152604080832081518083018352338082528185018881528354600180820186559488528688209351600291820290940180546001600160a01b0319166001600160a01b03958616178155915191909401558552925290912054166114e45760408051808201825233808252600060208084018281529282526002905292909220905181546001600160a01b0319166001600160a01b0390911617815590516001909101555b7f050735b04e4d0bf45ad597f4500f17ba72e51b05b0fc1bad63807ab65ca812ab833384604051610c4793929190612d85565b62093a8081565b6000828152600160209081526040808320600590925290912060048201546001600160a01b031633146115635760405162461bcd60e51b815260040161056290612a58565b6002815460ff16600481111561158957634e487b7160e01b600052602160045260246000fd5b146115a65760405162461bcd60e51b815260040161056290612c6b565b6006820154610100900460ff16156115d05760405162461bcd60e51b815260040161056290612d10565b6203f48081600201546115e39190612fba565b4211156116025760405162461bcd60e51b815260040161056290612740565b805460ff19166003178155825161162290600483019060208601906122e4565b507f6a6801c84b5eafecb7a729602448a0b85b863b083b6df28e288903334a14b4d884334260405161118e93929190612d85565b6203f48081565b6060600060045467ffffffffffffffff81111561168a57634e487b7160e01b600052604160045260246000fd5b6040519080825280602002602001820160405280156116b3578160200160208202803683370190505b509050600060015b60045481116117e357600081815260036020908152604080832080548251818502810185019093528083529192909190849084015b82821015611738576000848152602090819020604080518082019091526002850290910180546001600160a01b031682526001908101548284015290835290920191016116f0565b50505050905060005b81518110156117ce5781818151811061176a57634e487b7160e01b600052603260045260246000fd5b60200260200101516000015185858151811061179657634e487b7160e01b600052603260045260246000fd5b6001600160a01b0390921660209283029190910190910152836117b88161302d565b94505080806117c69061302d565b915050611741565b505080806117db9061302d565b9150506116bb565b509091505090565b6000818152600160209081526040808320600590925290912060048201546001600160a01b031633146118305760405162461bcd60e51b8152600401610562906128b0565b60048201546001600160a01b031661185a5760405162461bcd60e51b8152600401610562906127f0565b6006820154610100900460ff16156118845760405162461bcd60e51b815260040161056290612d10565b6000815460ff1660048111156118aa57634e487b7160e01b600052602160045260246000fd5b146118c75760405162461bcd60e51b815260040161056290612b3f565b805460ff191660019081178255429082018190556040517fcc1f37fb11ae585a69b11afeeddd809b93377adbb148e0e73fa151b40759afe791610c479186913391612d85565b6004805490600061191d8361302d565b90915550506040805161012081018252600454808252602080830187815283850187905233606085015260006080850181905260a0850181905260c0850181905260e0850181905261010085018790529283526001808352949092208351815591518051939492936119969385019291909101906122e4565b50604082015180516119b29160028401916020909101906122e4565b5060608201516003820180546001600160a01b03199081166001600160a01b03938416179091556080840151600484018054909216921691909117905560a0820151600582015560c082015160068201805460e085015160ff199091169215159290921761ff00191661010092151583021790558201518051611a3f9160078401916020909101906122e4565b509050507fedfd921b9d3f1e2d61625b6c7cbf436b8651ea7c5c83e688277f1600fdcb1f26600454848433604051610c479493929190612dca565b6000818152600160209081526040808320600590925290912060048201546001600160a01b03163314611abf5760405162461bcd60e51b815260040161056290612a58565b6002815460ff166004811115611ae557634e487b7160e01b600052602160045260246000fd5b14611b025760405162461bcd60e51b815260040161056290612c6b565b6006820154610100900460ff1615611b2c5760405162461bcd60e51b815260040161056290612d10565b6203f4808160020154611b3f9190612fba565b421115611b5e5760405162461bcd60e51b815260040161056290612740565b805460ff191660031781556040517f6a6801c84b5eafecb7a729602448a0b85b863b083b6df28e288903334a14b4d890610c4790859033904290612d85565b600081815260016020526040902060038101546001600160a01b03163314611bd75760405162461bcd60e51b81526004016105629061286b565b60048101546001600160a01b031615611c025760405162461bcd60e51b815260040161056290612c34565b600082815260036020908152604080832080548251818502810185019093528083529192909190849084015b82821015611c76576000848152602090819020604080518082019091526002850290910180546001600160a01b03168252600190810154828401529083529092019101611c2e565b5050505090506000815111611c9d5760405162461bcd60e51b8152600401610562906126d9565b600060001981805b8451811015611dfb576000858281518110611cd057634e487b7160e01b600052603260045260246000fd5b602090810291909101015151600080546040516370a0823160e01b815292935090916001600160a01b03909116906370a0823190611d1290859060040161260b565b60206040518083038186803b158015611d2a57600080fd5b505afa158015611d3e573d6000803e3d6000fd5b505050506040513d601f19601f82011682018060405250810190611d629190612549565b90506000878481518110611d8657634e487b7160e01b600052603260045260246000fd5b602002602001015160200151905084821180611dab57508482148015611dab57508581105b15611de557819450878481518110611dd357634e487b7160e01b600052603260045260246000fd5b60200260200101516020015195508296505b5050508080611df39061302d565b915050611ca5565b506001600160a01b038316611e225760405162461bcd60e51b815260040161056290612777565b6004850180546001600160a01b0319166001600160a01b038516179055600585018290556040517fdd33626ddad41a9d8289ee8abbbd0b8f5a72a0e1e8661ef3ab9774ed4cf6a27690611e7a90889086908690612d85565b60405180910390a1505050505050565b6000818152600160209081526040808320600590925290912060038201546001600160a01b03163314611ecf5760405162461bcd60e51b8152600401610562906129ea565b6001815460ff166004811115611ef557634e487b7160e01b600052602160045260246000fd5b1480611f2457506003815460ff166004811115611f2257634e487b7160e01b600052602160045260246000fd5b145b611f405760405162461bcd60e51b815260040161056290612947565b6006820154610100900460ff1615611f6a5760405162461bcd60e51b815260040161056290612d10565b60068201805460ff1990811660019081179092558254811660041783556003830180549091169091179055611f9e83611fcf565b7fae45c6260346930c9824dfa2888d501cfd9372f592303b38f7788326fc22f0168333604051610c47929190612d49565b600081815260016020526040902060058101544710156120015760405162461bcd60e51b815260040161056290612b76565b600481015460058201546040516000926001600160a01b03169161c3509161202890612608565b600060405180830381858888f193505050503d8060008114612066576040519150601f19603f3d011682016040523d82523d6000602084013e61206b565b606091505b5050905080156120cf5760068201805461ff001916610100179055600482015460058301546040517f3649876827f5d911fc0aa74f593cdc51500840915ec37032581ed010f08f5f0a92610fc79287926001600160a01b0390921691600190612da4565b60008051602061307583398151915283604051610ff19190612f0d565b6000818152600160205260409020600581015447101561211e5760405162461bcd60e51b815260040161056290612b76565b6000600282600501546121319190612fd2565b60048301546040519192506000916001600160a01b039091169061c35090849061215a90612608565b600060405180830381858888f193505050503d8060008114612198576040519150601f19603f3d011682016040523d82523d6000602084013e61219d565b606091505b50509050806121e357600080516020613075833981519152846040516121c39190612ec0565b60405180910390a160405162461bcd60e51b815260040161056290612820565b60038301546040516000916001600160a01b03169061c35090859061220790612608565b600060405180830381858888f193505050503d8060008114612245576040519150601f19603f3d011682016040523d82523d6000602084013e61224a565b606091505b505090508061229057600080516020613075833981519152856040516122709190612f4b565b60405180910390a160405162461bcd60e51b8152600401610562906128fe565b60068401805461ff0019166101001790556040517f50ecfcc47f2c5b2a26f91422abf650476ec7f701c48b1cf6d1d6d4d51a872ed6906122d590879086908190612fa4565b60405180910390a15050505050565b8280546122f090612ff2565b90600052602060002090601f0160209004810192826123125760008555612358565b82601f1061232b57805160ff1916838001178555612358565b82800160010185558215612358579182015b8281111561235857825182559160200191906001019061233d565b50612364929150612368565b5090565b5b808211156123645760008155600101612369565b600082601f83011261238d578081fd5b813567ffffffffffffffff808211156123a8576123a861305e565b604051601f8301601f1916810160200182811182821017156123cc576123cc61305e565b6040528281528483016020018610156123e3578384fd5b82602086016020830137918201602001929092529392505050565b60006020828403121561240f578081fd5b81356001600160a01b0381168114612425578182fd5b9392505050565b60006020828403121561243d578081fd5b81518015158114612425578182fd5b6000806040838503121561245e578081fd5b823567ffffffffffffffff80821115612475578283fd5b6124818683870161237d565b93506020850135915080821115612496578283fd5b506124a38582860161237d565b9150509250929050565b6000806000606084860312156124c1578081fd5b833567ffffffffffffffff808211156124d8578283fd5b6124e48783880161237d565b945060208601359150808211156124f9578283fd5b6125058783880161237d565b9350604086013591508082111561251a578283fd5b506125278682870161237d565b9150509250925092565b600060208284031215612542578081fd5b5035919050565b60006020828403121561255a578081fd5b5051919050565b60008060408385031215612573578182fd5b82359150602083013567ffffffffffffffff811115612590578182fd5b6124a38582860161237d565b600080604083850312156125ae578182fd5b50508035926020909101359150565b60008151808452815b818110156125e2576020818501810151868301820152016125c6565b818111156125f35782602083870101525b50601f01601f19169290920160200192915050565b90565b6001600160a01b0391909116815260200190565b6001600160a01b03929092168252602082015260400190565b6020808252825182820181905260009190848201906040850190845b818110156126795783516001600160a01b031683529284019291840191600101612654565b50909695505050505050565b6000600587106126a357634e487b7160e01b81526021600452602481fd5b868252856020830152846040830152831515606083015260a060808301526126ce60a08301846125bd565b979650505050505050565b6020808252601b908201527f4e6f20667265656c616e636572732068617665206170706c6965640000000000604082015260600190565b602080825260169082015275109a5908185b5bdd5b9d081b5d5cdd081899481cd95d60521b604082015260600190565b6020808252601c908201527f52657375626d697373696f6e20646561646c696e652070617373656400000000604082015260600190565b6020808252601c908201527f4e6f207375697461626c6520667265656c616e63657220666f756e6400000000604082015260600190565b60208082526022908201527f4f6e6c7920656d706c6f7965722063616e206d61726b20617320636f6d706c65604082015261746560f01b606082015260800190565b602080825260169082015275139bc8199c99595b185b98d95c88185cdcda59db995960521b604082015260600190565b6020808252602b908201527f4661696c656420746f2073656e6420457468657220746f20667265656c616e6360408201526a195c881a5b881cdc1b1a5d60aa1b606082015260800190565b60208082526025908201527f4f6e6c7920656d706c6f7965722063616e2061737369676e206120667265656c60408201526430b731b2b960d91b606082015260800190565b6020808252602e908201527f4f6e6c79207468652061737369676e656420667265656c616e6365722063616e60408201526d206d61726b20617320726561647960901b606082015260800190565b60208082526029908201527f4661696c656420746f2073656e6420457468657220746f20656d706c6f796572604082015268081a5b881cdc1b1a5d60ba1b606082015260800190565b6020808252601c908201527f50726f6a656374206e6f7420726561647920666f722072657669657700000000604082015260600190565b6020808252601d908201527f50726f6a656374206e6f7420726561647920666f722064697370757465000000604082015260600190565b6020808252818101527f50726f6a65637420616c726561647920686173206120667265656c616e636572604082015260600190565b6020808252601d908201527f4f6e6c792074686520656d706c6f7965722063616e20617070726f7665000000604082015260600190565b60208082526019908201527f50726f6a656374206d75737420626520636f6d706c6574656400000000000000604082015260600190565b60208082526029908201527f4f6e6c79207468652061737369676e656420667265656c616e6365722063616e604082015268081c995cdd589b5a5d60ba1b606082015260800190565b6020808252601f908201527f4f6e6c7920656d706c6f7965722063616e206465706f7369742066756e647300604082015260600190565b6020808252601d908201527f50726f6a656374206e6f7420696e206120726576696577207374617465000000604082015260600190565b602080825260169082015275141c9bda9958dd08191bd95cc81b9bdd08195e1a5cdd60521b604082015260600190565b6020808252601e908201527f50726f6a656374206973206e6f7420696e206163746976652073746174650000604082015260600190565b6020808252601d908201527f496e73756666696369656e7420636f6e74726163742062616c616e6365000000604082015260600190565b60208082526022908201527f4661696c656420746f2073656e6420457468657220746f20667265656c616e6360408201526132b960f11b606082015260800190565b60208082526025908201527f4465706f736974206d757374206d61746368207468652070726f6a65637420616040820152641b5bdd5b9d60da1b606082015260800190565b6020808252601b908201527f467265656c616e63657220616c72656164792061737369676e65640000000000604082015260600190565b6020808252601d908201527f50726f6a656374206e6f7420696e206469737075746564207374617465000000604082015260600190565b6020808252601d908201527f4f6e6c792074686520656d706c6f7965722063616e2064697370757465000000604082015260600190565b6020808252601f908201527f4f6e6c7920656d706c6f7965722063616e2072656c656173652066756e647300604082015260600190565b602080825260169082015275119d5b991cc8185b1c9958591e481c995b19585cd95960521b604082015260600190565b90815260200190565b9182526001600160a01b0316602082015260400190565b9384526001600160a01b03928316602085015291166040830152606082015260800190565b9283526001600160a01b03919091166020830152604082015260600190565b9384526001600160a01b0392909216602084015260408301521515606082015260800190565b600085825260806020830152612de360808301866125bd565b8281036040840152612df581866125bd565b91505060018060a01b038316606083015295945050505050565b60006101208b8352806020840152612e298184018c6125bd565b90508281036040840152612e3d818b6125bd565b6001600160a01b038a811660608601528916608085015260a0840188905286151560c085015285151560e08501528381036101008501529050612e8081856125bd565b9c9b505050505050505050505050565b908152604060208201819052600f908201526e151c985b9cd9995c8819985a5b1959608a1b606082015260800190565b9081526040602082018190526026908201527f5472616e7366657220746f20667265656c616e636572206661696c656420696e606082015265081cdc1b1a5d60d21b608082015260a00190565b908152604060208201819052601d908201527f5472616e7366657220746f20667265656c616e636572206661696c6564000000606082015260800190565b9081526040602082018190526024908201527f5472616e7366657220746f20656d706c6f796572206661696c656420696e20736060820152631c1b1a5d60e21b608082015260a00190565b918252602082015260400190565b9283526020830191909152604082015260600190565b60008219821115612fcd57612fcd613048565b500190565b600082612fed57634e487b7160e01b81526012600452602481fd5b500490565b60028104600182168061300657607f821691505b6020821081141561302757634e487b7160e01b600052602260045260246000fd5b50919050565b600060001982141561304157613041613048565b5060010190565b634e487b7160e01b600052601160045260246000fd5b634e487b7160e01b600052604160045260246000fdfed4bbf0b04df29a69dd15318790f63fcd0524c5b186c461d70e8b2935fd9dc6f7a2646970667358221220ea655fe511c1d8b3e6ba6b9bbce614d0fd8008f4263c3776f8fcd7eddea3e47364736f6c63430008000033",
  "immutableReferences": {},
  "source": "// SPDX-License-Identifier: UNLICENSED\r\npragma solidity ^0.8.0;\r\n\r\ninterface IReputationToken {\r\n    function transfer(address _to, uint256 _value) external returns (bool success);\r\n    function balanceOf(address _owner) external view returns (uint256 balance);\r\n}\r\n\r\ncontract HireChain {\r\n    enum Role { Employer, Freelancer }\r\n\r\n    struct Project {\r\n        uint256 id;\r\n        string name;\r\n        string description;\r\n        address employer;\r\n        address freelancer;\r\n        uint256 bidAmount;\r\n        bool completed;\r\n        bool isPaid;\r\n        string employerFileCID; // New field for employer's file CID\r\n    }\r\n\r\n    struct Freelancer {\r\n        address freelancerAddress;\r\n        uint256 reputation; // Mirrors token balance for simplicity\r\n    }\r\n\r\n    struct FeeProposal {\r\n        address freelancer;\r\n        uint256 proposedFee;\r\n    }\r\n\r\n    IReputationToken public reputationToken;\r\n    mapping(uint256 => Project) public projects;\r\n    mapping(address => Freelancer) public freelancers;\r\n    mapping(uint256 => FeeProposal[]) public feeProposals;\r\n    uint256 public projectCount;\r\n\r\n    event ProjectCreated(uint256 id, string name, string description, address employer);\r\n    event ProjectCompleted(uint256 id, address employer, address freelancer, uint256 bidAmount);\r\n    event ProjectApplied(uint256 id, address freelancer, uint256 bidAmount);\r\n    event FreelancerAssigned(uint256 id, address freelancer, uint256 proposedFee);\r\n    event FundsDeposited(uint id, uint256 bidAmount);\r\n    event FundsReleased(uint id, address freelancer, uint256 bidAmount, bool success);\r\n    event ReputationAwarded(address freelancer, uint256 amount);\r\n    event TransferFailed(uint id, string reason);\r\n\r\n    constructor(address _reputationTokenAddress) {\r\n        reputationToken = IReputationToken(_reputationTokenAddress);\r\n    }\r\n\r\n    function createProject(string memory _name, string memory _description) public {\r\n        projectCount++;\r\n        projects[projectCount] = Project(projectCount, _name, _description, msg.sender, address(0), 0, false, false, \"\");\r\n        emit ProjectCreated(projectCount, _name, _description, msg.sender);\r\n    }\r\n\r\n    function depositFunds(uint _projectId) public payable {\r\n        Project storage project = projects[_projectId];\r\n        require(msg.sender == project.employer, \"Only employer can deposit funds\");\r\n        require(project.bidAmount > 0, \"Bid amount must be set\");\r\n        require(msg.value == project.bidAmount, \"Deposit must match the project amount\");\r\n        emit FundsDeposited(_projectId, msg.value);\r\n    }\r\n\r\n    function applyForProject(uint256 _projectId, uint256 _bidAmount) public {\r\n        Project storage project = projects[_projectId];\r\n        require(project.employer != address(0), \"Project does not exist\");\r\n        require(project.freelancer == address(0), \"Project already has a freelancer\");\r\n        feeProposals[_projectId].push(FeeProposal(msg.sender, _bidAmount));\r\n        if (freelancers[msg.sender].freelancerAddress == address(0)) {\r\n            freelancers[msg.sender] = Freelancer(msg.sender, 0);\r\n        }\r\n        emit ProjectApplied(_projectId, msg.sender, _bidAmount);\r\n    }\r\n\r\n    function assignFreelancer(uint256 _projectId) public {\r\n        Project storage project = projects[_projectId];\r\n        require(msg.sender == project.employer, \"Only employer can assign a freelancer\");\r\n        require(project.freelancer == address(0), \"Freelancer already assigned\");\r\n\r\n        FeeProposal[] memory proposals = feeProposals[_projectId];\r\n        require(proposals.length > 0, \"No freelancers have applied\");\r\n\r\n        address bestFreelancer = address(0);\r\n        uint256 minFee = type(uint256).max;\r\n        uint256 maxReputation = 0;\r\n\r\n        for (uint256 i = 0; i < proposals.length; i++) {\r\n            address freelancer = proposals[i].freelancer;\r\n            uint256 freelancerRep = reputationToken.balanceOf(freelancer);\r\n            uint256 proposedFee = proposals[i].proposedFee;\r\n\r\n            if (freelancerRep > maxReputation || (freelancerRep == maxReputation && proposedFee < minFee)) {\r\n                maxReputation = freelancerRep;\r\n                minFee = proposals[i].proposedFee;\r\n                bestFreelancer = freelancer;\r\n            }\r\n        }\r\n\r\n        require(bestFreelancer != address(0), \"No suitable freelancer found\");\r\n        project.freelancer = bestFreelancer;\r\n        project.bidAmount = minFee;\r\n        emit FreelancerAssigned(_projectId, bestFreelancer, minFee);\r\n    }\r\n\r\n    function completeProject(uint256 _projectId) public {\r\n        Project storage project = projects[_projectId];\r\n        require(msg.sender == project.employer, \"Only employer can mark as complete\");\r\n        require(project.freelancer != address(0), \"No freelancer assigned\");\r\n        require(!project.isPaid, \"Funds already released\");\r\n\r\n        project.completed = true;\r\n        uint256 reward = 100 * 10**18; // 100 REP tokens\r\n        reputationToken.transfer(project.freelancer, reward);\r\n        freelancers[project.freelancer].reputation = reputationToken.balanceOf(project.freelancer);\r\n        emit ProjectCompleted(_projectId, project.employer, project.freelancer, project.bidAmount);\r\n        emit ReputationAwarded(project.freelancer, reward);\r\n    }\r\n\r\n    function releaseFunds(uint256 _projectId) public {\r\n        Project storage project = projects[_projectId];\r\n        require(msg.sender == project.employer, \"Only employer can release funds\");\r\n        require(project.completed, \"Project must be completed\");\r\n        require(!project.isPaid, \"Funds already released\");\r\n        require(address(this).balance >= project.bidAmount, \"Insufficient contract balance\");\r\n\r\n        (bool sent, ) = project.freelancer.call{value: project.bidAmount, gas: 50000}(\"\");\r\n        if (sent) {\r\n            project.isPaid = true;\r\n            emit FundsReleased(_projectId, project.freelancer, project.bidAmount, true);\r\n        } else {\r\n            emit TransferFailed(_projectId, \"Transfer failed\");\r\n            revert(\"Failed to send Ether to freelancer\");\r\n        }\r\n    }\r\n\r\n    function getFreelancerReputation(address _freelancer) public view returns (uint256) {\r\n        return reputationToken.balanceOf(_freelancer);\r\n    }\r\n\r\n    function getFreelancers() public view returns (address[] memory) {\r\n        address[] memory allFreelancers = new address[](projectCount);\r\n        uint256 index = 0;\r\n        for (uint256 i = 1; i <= projectCount; i++) {\r\n            FeeProposal[] memory proposals = feeProposals[i];\r\n            for (uint256 j = 0; j < proposals.length; j++) {\r\n                allFreelancers[index] = proposals[j].freelancer;\r\n                index++;\r\n            }\r\n        }\r\n        return allFreelancers;\r\n    }\r\n\r\n    receive() external payable {}\r\n\r\n    // --- Existing Code for Mutual Agreement with Dispute Resolution ---\r\n\r\n    enum ProjectState { Active, ReadyForReview, Disputed, Resubmitted, Completed }\r\n\r\n    struct ReviewStatus {\r\n        ProjectState state;\r\n        uint256 readyForReviewTimestamp;\r\n        uint256 disputeTimestamp;\r\n        bool employerApproved;\r\n        string freelancerFileCID; // New field for freelancer's file CID\r\n    }\r\n\r\n    mapping(uint256 => ReviewStatus) public reviewStatuses;\r\n\r\n    uint256 public constant EMPLOYER_REVIEW_DEADLINE = 7 days;\r\n    uint256 public constant FREELANCER_RESUBMIT_DEADLINE = 3 days;\r\n    uint256 public constant EMPLOYER_REDISPUTE_DEADLINE = 3 days;\r\n\r\n    event ProjectMarkedReadyForReview(uint256 projectId, address freelancer, uint256 timestamp);\r\n    event ProjectApproved(uint256 projectId, address employer);\r\n    event ProjectDisputed(uint256 projectId, address employer, uint256 timestamp);\r\n    event ProjectResubmitted(uint256 projectId, address freelancer, uint256 timestamp);\r\n    event FundsAutoReleased(uint256 projectId, address freelancer, uint256 amount);\r\n    event FundsSplit(uint256 projectId, uint256 employerAmount, uint256 freelancerAmount);\r\n\r\n    // Modified createProject to accept employerFileCID\r\n    function createProject(string memory _name, string memory _description, string memory _employerFileCID) public {\r\n        projectCount++;\r\n        projects[projectCount] = Project(projectCount, _name, _description, msg.sender, address(0), 0, false, false, _employerFileCID);\r\n        emit ProjectCreated(projectCount, _name, _description, msg.sender);\r\n    }\r\n\r\n    function markReadyForReview(uint256 _projectId) public {\r\n        Project storage project = projects[_projectId];\r\n        ReviewStatus storage review = reviewStatuses[_projectId];\r\n\r\n        require(msg.sender == project.freelancer, \"Only the assigned freelancer can mark as ready\");\r\n        require(project.freelancer != address(0), \"No freelancer assigned\");\r\n        require(!project.isPaid, \"Funds already released\");\r\n        require(review.state == ProjectState.Active, \"Project is not in active state\");\r\n\r\n        review.state = ProjectState.ReadyForReview;\r\n        review.readyForReviewTimestamp = block.timestamp;\r\n        emit ProjectMarkedReadyForReview(_projectId, msg.sender, block.timestamp);\r\n    }\r\n\r\n    function approveProject(uint256 _projectId) public {\r\n        Project storage project = projects[_projectId];\r\n        ReviewStatus storage review = reviewStatuses[_projectId];\r\n\r\n        require(msg.sender == project.employer, \"Only the employer can approve\");\r\n        require(review.state == ProjectState.ReadyForReview || review.state == ProjectState.Resubmitted, \"Project not ready for review\");\r\n        require(!project.isPaid, \"Funds already released\");\r\n\r\n        project.completed = true;\r\n        review.state = ProjectState.Completed;\r\n        review.employerApproved = true;\r\n\r\n        releaseFundsToFreelancer(_projectId);\r\n        emit ProjectApproved(_projectId, msg.sender);\r\n    }\r\n\r\n    function disputeProject(uint256 _projectId) public {\r\n        Project storage project = projects[_projectId];\r\n        ReviewStatus storage review = reviewStatuses[_projectId];\r\n\r\n        require(msg.sender == project.employer, \"Only the employer can dispute\");\r\n        require(review.state == ProjectState.ReadyForReview || review.state == ProjectState.Resubmitted, \"Project not ready for dispute\");\r\n        require(!project.isPaid, \"Funds already released\");\r\n\r\n        review.state = ProjectState.Disputed;\r\n        review.disputeTimestamp = block.timestamp;\r\n        emit ProjectDisputed(_projectId, msg.sender, block.timestamp);\r\n    }\r\n\r\n    function resubmitProject(uint256 _projectId) public {\r\n        Project storage project = projects[_projectId];\r\n        ReviewStatus storage review = reviewStatuses[_projectId];\r\n\r\n        require(msg.sender == project.freelancer, \"Only the assigned freelancer can resubmit\");\r\n        require(review.state == ProjectState.Disputed, \"Project not in disputed state\");\r\n        require(!project.isPaid, \"Funds already released\");\r\n        require(block.timestamp <= review.disputeTimestamp + FREELANCER_RESUBMIT_DEADLINE, \"Resubmission deadline passed\");\r\n\r\n        review.state = ProjectState.Resubmitted;\r\n        emit ProjectResubmitted(_projectId, msg.sender, block.timestamp);\r\n    }\r\n\r\n    function checkDeadlines(uint256 _projectId) public {\r\n        Project storage project = projects[_projectId];\r\n        ReviewStatus storage review = reviewStatuses[_projectId];\r\n\r\n        require(!project.isPaid, \"Funds already released\");\r\n        require(review.state != ProjectState.Active && review.state != ProjectState.Completed, \"Project not in a review state\");\r\n\r\n        if (review.state == ProjectState.ReadyForReview &&\r\n            block.timestamp > review.readyForReviewTimestamp + EMPLOYER_REVIEW_DEADLINE) {\r\n            project.completed = true;\r\n            review.state = ProjectState.Completed;\r\n            releaseFundsToFreelancer(_projectId);\r\n            emit FundsAutoReleased(_projectId, project.freelancer, project.bidAmount);\r\n            return;\r\n        }\r\n\r\n        if (review.state == ProjectState.Disputed &&\r\n            block.timestamp > review.disputeTimestamp + FREELANCER_RESUBMIT_DEADLINE) {\r\n            splitFunds(_projectId);\r\n            return;\r\n        }\r\n\r\n        if (review.state == ProjectState.Resubmitted &&\r\n            block.timestamp > review.readyForReviewTimestamp + EMPLOYER_REDISPUTE_DEADLINE) {\r\n            project.completed = true;\r\n            review.state = ProjectState.Completed;\r\n            releaseFundsToFreelancer(_projectId);\r\n            emit FundsAutoReleased(_projectId, project.freelancer, project.bidAmount);\r\n            return;\r\n        }\r\n\r\n        if (review.state == ProjectState.Disputed &&\r\n            review.disputeTimestamp > review.readyForReviewTimestamp) {\r\n            splitFunds(_projectId);\r\n            return;\r\n        }\r\n    }\r\n\r\n    function releaseFundsToFreelancer(uint256 _projectId) internal {\r\n        Project storage project = projects[_projectId];\r\n        require(address(this).balance >= project.bidAmount, \"Insufficient contract balance\");\r\n\r\n        (bool sent, ) = project.freelancer.call{value: project.bidAmount, gas: 50000}(\"\");\r\n        if (sent) {\r\n            project.isPaid = true;\r\n            emit FundsReleased(_projectId, project.freelancer, project.bidAmount, true);\r\n        } else {\r\n            emit TransferFailed(_projectId, \"Transfer to freelancer failed\");\r\n            revert(\"Failed to send Ether to freelancer\");\r\n        }\r\n    }\r\n\r\n    function splitFunds(uint256 _projectId) internal {\r\n        Project storage project = projects[_projectId];\r\n        require(address(this).balance >= project.bidAmount, \"Insufficient contract balance\");\r\n\r\n        uint256 halfAmount = project.bidAmount / 2;\r\n\r\n        (bool sentFreelancer, ) = project.freelancer.call{value: halfAmount, gas: 50000}(\"\");\r\n        if (!sentFreelancer) {\r\n            emit TransferFailed(_projectId, \"Transfer to freelancer failed in split\");\r\n            revert(\"Failed to send Ether to freelancer in split\");\r\n        }\r\n\r\n        (bool sentEmployer, ) = project.employer.call{value: halfAmount, gas: 50000}(\"\");\r\n        if (!sentEmployer) {\r\n            emit TransferFailed(_projectId, \"Transfer to employer failed in split\");\r\n            revert(\"Failed to send Ether to employer in split\");\r\n        }\r\n\r\n        project.isPaid = true;\r\n        emit FundsSplit(_projectId, halfAmount, halfAmount);\r\n    }\r\n\r\n    // --- New Code for IPFS File Sharing ---\r\n\r\n    // Modified functions to accept CIDs\r\n    function markReadyForReview(uint256 _projectId, string memory _freelancerFileCID) public {\r\n        Project storage project = projects[_projectId];\r\n        ReviewStatus storage review = reviewStatuses[_projectId];\r\n\r\n        require(msg.sender == project.freelancer, \"Only the assigned freelancer can mark as ready\");\r\n        require(project.freelancer != address(0), \"No freelancer assigned\");\r\n        require(!project.isPaid, \"Funds already released\");\r\n        require(review.state == ProjectState.Active, \"Project is not in active state\");\r\n\r\n        review.state = ProjectState.ReadyForReview;\r\n        review.readyForReviewTimestamp = block.timestamp;\r\n        review.freelancerFileCID = _freelancerFileCID; // Store the CID\r\n        emit ProjectMarkedReadyForReview(_projectId, msg.sender, block.timestamp);\r\n    }\r\n\r\n    function resubmitProject(uint256 _projectId, string memory _freelancerFileCID) public {\r\n        Project storage project = projects[_projectId];\r\n        ReviewStatus storage review = reviewStatuses[_projectId];\r\n\r\n        require(msg.sender == project.freelancer, \"Only the assigned freelancer can resubmit\");\r\n        require(review.state == ProjectState.Disputed, \"Project not in disputed state\");\r\n        require(!project.isPaid, \"Funds already released\");\r\n        require(block.timestamp <= review.disputeTimestamp + FREELANCER_RESUBMIT_DEADLINE, \"Resubmission deadline passed\");\r\n\r\n        review.state = ProjectState.Resubmitted;\r\n        review.freelancerFileCID = _freelancerFileCID; // Update the CID\r\n        emit ProjectResubmitted(_projectId, msg.sender, block.timestamp);\r\n    }\r\n}",
  "sourcePath": "C:\\Users\\NAVJOTH RAI\\HC\\contracts\\HireChain.sol",
  "compiler": {
    "name": "solc",
    "version": "0.8.0+commit.c7dfd78e.Emscripten.clang"
  },
  "schemaVersion": "3.4.16",
  "updatedAt": "2025-03-21T19:38:58.852Z",
  "networkType": "ethereum",
  "devdoc": {
    "kind": "dev",
    "methods": {},
    "version": 1
  },
  "userdoc": {
    "kind": "user",
    "methods": {},
    "version": 1
  }
}